:020000040800F2
:10000000280B002005010008C52F00084126000824
:10001000252F0008010B00088D37000800000000A4
:10002000000000000000000000000000E5300008B3
:10003000890B00080000000095300008B932000864
:100040001F0100081F0100081F0100081F01000810
:100050001F0100081F0100081F0100081F01000800
:100060001F0100081F0100081F0100081F010008F0
:100070001F0100081F0100081F0100081F010008E0
:100080001F0100081F0100081F0100081F010008D0
:100090001F0100081F0100081F0100081F010008C0
:1000A0001F010008A93300081F0100089D33000844
:1000B0001F0100081F0100081F0100081F010008A0
:1000C0001F0100081F0100081F0100081F01000890
:1000D0001F010008813700081F0100081F010008E8
:1000E0001F0100081F0100081F010008DFF810D0E1
:1000F00000F04AFC0048004741450008AFF300808B
:10010000280B00200648804706480047FEE7FEE728
:10011000FEE7FEE7FEE7FEE7FEE7FEE7FEE7FEE7B7
:100120009B330008ED000008202A04DB203A21FA66
:1001300002F00021704721FA02F3D040C2F1200200
:100140009140084319467047D2B201E000F8012BF4
:10015000491EFBD270470022F6E710B513460A4647
:1001600004461946FFF7F0FF204610BDF0B480EAC0
:100170000102D40F4200B2EB410F02D20246084600
:1001800011464A0042D0C30DDDB2C1F3C752AD1AC9
:10019000202D35DAC1F3160141F4000204B15242B8
:1001A000C5F1200602FA06F12A411044B3EBD05FF4
:1001B00023D0C4B1012DA0EBC35009DCF0BC4FF03B
:1001C000004202EAC352DBB200F5000000F008BBB7
:1001D000400000F1807000EBC350A0F1807040EA55
:1001E000D170490009E0490841EAC071A0EBC35051
:1001F00000F50000400800EBC350F0BC00F0E7BA87
:100200006142012202EB4101001BF6E7F0BC70479E
:1002100081F00041AAE780F00040A7E780EA0102F0
:1002200010B502F00043400022D04A001FD0010E5A
:1002300001EB1261C0F35600C2F3560240F4000015
:1002400042F40002A0FB022000047F39140400D015
:10025000401C50EA124001D44000491EC2B20C06B4
:1002600004EBD010401C4008802A02D003E000209C
:1002700010BD20F00100002900DA0020184310BD55
:1002800030B480EA010202F0004530F0004221F073
:10029000004013D090B1C30DD40DC2F31601C0F3CA
:1002A0001600E41A41F4000140F400027D3491424A
:1002B00001D3641C00E04900002C02DA30BC0020AD
:1002C00070474FF400000023914201D3891A034381
:1002D00040084FEA4101F7D151B1914202D14FF0AC
:1002E000004105E002D24FF0010101E06FF0010191
:1002F00003EBC450284430BC00F069BA2DE9FE4F2E
:10030000804681EA0300C00F0C46009021F00041B6
:1003100023F00045B8EB0200A94105D24046214632
:1003200090461C460B46024623F00040104347D03F
:10033000270DC7F30A00C3F30A510290401A019037
:1003400040286BDAC3F3130040F4801B00989246F8
:1003500020B10023D2EB030A63EB0B0B0198594643
:10036000C0F14002504600F011FA06460D465046D4
:100370005946019A00F019FA10EB08006141002477
:1003800087EA115284EAE7731A4340D0009A62B3B5
:10039000019A012A4FEA075215DC001B61EB0201AA
:1003A0004FF0004202EA0752CDE90042001C41F53D
:1003B000801132462B4600F050FA03B0BDE8F08FB2
:1003C00040462146F9E7001B61EB0201001C41F5A4
:1003D000801300185B412018A2F5001747EB0301BA
:1003E00040EAD570B6196D4111E06D084FEA360646
:1003F00045EAC0754FEA0752001B61EB0201001C81
:1004000041F5801149084FEA300000195141324648
:100410002B4603B0BDE8F04F00F010BA009801225F
:1004200040000023D0EB020263EBE073009821460A
:100430004FEAE074B8EB000061EB0401E9E783F0F8
:1004400000435BE781F0004158E72DE9FE4F81EA68
:10045000030404F0004421F0004100944FF0000B2D
:1004600023F0004350EA01045ED052EA03045BD05B
:10047000C3F30A54C1F30A552C44A4F2F334019493
:10048000A0FB0254C1F3130141F48011C3F3130321
:1004900043F4801301FB024400FB034E840A970AD5
:1004A00044EA815447EA8357A4FB076802958D0A02
:1004B00005FB07854FEA932C04FB0C542705029D8E
:1004C0004FEA065847EA1637B5EB08056EEB070CFE
:1004D000870E920E47EA811742EA8312A7FB0201B8
:1004E000B6EB0B0164EB00042B0D43EA0C335E18F2
:1004F00044EB1C50DA465146E7FB0201C5F31304F6
:100500004FEA0B3343EA14534FEA0432019C43EAA7
:100510000603A4F10C040294009CCDE900B400F0A1
:100520009CF903B0BDE8F08F00200146F9E72DE902
:10053000F04D81EA030404F0004B21F0004514461D
:100540004FF0000A23F0004150EA050220D054EA9F
:1005500001021DD0C5F30A570246C5F31303C1F3C8
:100560001300C1F30A5640F4801543F48013A7EB3F
:100570000608101BD64608F2FD3873EB050002D3BF
:1005800008F1010801E092185B41B8F1000F03DAAD
:1005900000200146BDE8F08D00204FF48011064692
:1005A00084460EE0171B73EB050705D3121B63EBA4
:1005B000050306434CEA010C49084FEA3000921843
:1005C0005B4150EA0107EDD152EA030012D082EA02
:1005D000040083EA0501084305D0101BAB4106D295
:1005E0000122002306E000224FF0004302E06FF0FA
:1005F000010253101AEB06004CEB085110EB0A00F5
:1006000041EB0B01BDE8F04D00F018B970B521F0D9
:10061000004303430CD0C1F30A550024D5EB040575
:1006200064EB0403D617AD1AB34102DB0020014688
:1006300070BD201841EB025170BDC10F80EAE0701F
:100640000844CA079623002100F0CAB80EB5C10FAE
:1006500080EAE0700844CA07002140F233438DE885
:100660000E000A460B4600F0F8F803B000BD00F09B
:10067000004220F00040C10DC0F3160040F400001D
:100680007F2901DA00207047962903DCC1F1960129
:10069000C84001E096398840002AF4D040427047B3
:1006A00000F0004230F000400AD0C10D01F5607149
:1006B000C0F3160042EA0151C208400711437047D7
:1006C00000200146704701F0004330B421F00041A2
:1006D00050EA010206D00A0DA2F56072C1F31301BF
:1006E000002A02DC30BC00207047440F44EAC104F9
:1006F000C100E01830BC00EBC25000F068B830B563
:100700000B46014600202022012409E021FA02F5CF
:100710009D4205D303FA02F5491B04FA02F5284469
:10072000151EA2F10102F1DC30BD2DE9F05F054696
:10073000002092469B4688460646814640241BE0A0
:100740002846414647462246FFF7EEFC53465A46A6
:10075000C01A914110D311461846224600F016F8EF
:100760002D1A67EB01084F4622460120002100F0B8
:100770000DF817EB00094E41201EA4F10104DFDC47
:10078000484631462A464346BDE8F09F202A04DB0E
:10079000203A00FA02F1002070479140C2F1200394
:1007A00020FA03F3194390407047202A06DBCB1749
:1007B000203A41FA02F043EAE07306E041FA02F31C
:1007C000D040C2F1200291400843194670470029E9
:1007D000A8BF7047401C490008BF20F001007047C7
:1007E00010B4B0FA80FC00FA0CF050EA010404BF27
:1007F00010BC704749B1CCF1200421FA04F411FA7D
:100800000CF118BF012121430843A3EB0C01CB1DC0
:100810004FEA00614FEA102042BF002010BC704731
:1008200000EBC35010440029A4BF10BC7047401C0B
:10083000490008BF20F0010010BC704710B5141E1D
:1008400073F1000408DA401C41F1000192185B4189
:100850001A4301D120F0010010BD2DE9F04D924660
:100860009B4611B1B1FA81F202E0B0FA80F2203277
:100870009046FFF78BFF04460F4640EA0A0041EA24
:100880000B0153465A46084313D0114653EA010060
:1008900019D0C8F140025046FFF746FC05460E4607
:1008A000504659464246FFF771FF084305D00120E4
:1008B00004E020463946BDE8F08D0020054346EAB5
:1008C000E0762C4337430A986305E40AA0EB08005E
:1008D0000022FD0A44EA47540A3002D500200146AE
:1008E000E9E7010510196941DDE908450019694189
:1008F000BDE8F04DA2E7C1F30A52C1F3130140F283
:10090000FF3341F480119A4202DA00200146704719
:1009100040F233439A42A2F2334202DC5242FFF7E2
:1009200003BCFFF733BF000030B5041E71F10004B3
:1009300004DB4FF00044404264EB0101141E73F1EC
:10094000000405DB1C464FF00043524263EB0403F6
:100950008B4208BF824230BD30B5041E71F10004E5
:1009600004DB4FF00044404264EB0101141E73F1BC
:10097000000405DB1C464FF00043524263EB0403C6
:10098000994208BF904230BD064C074D06E0E06832
:1009900040F0010394E8070098471034AC42F6D3C6
:1009A000FFF7A8FB585A0008785A000870B58C1851
:1009B00010F8015B15F0070301D110F8013B2A1173
:1009C00006D110F8012B03E010F8016B01F8016B60
:1009D0005B1EF9D12B0705D40023521E0DD401F85C
:1009E000013BFAE710F8013BCB1A921C03E013F825
:1009F000015B01F8015B521EF9D5A142D8D300205A
:100A000070BD00002DE9F0412A4CB4F90000FFF759
:100A10001DFE6FF00D052A46FFF7F8FDFFF753FEA8
:100A20002062B4F90200FFF711FE2A46FFF7EEFD3F
:100A3000FFF749FE06466062B4F90400FFF706FEC0
:100A40002A46FFF7E3FDFFF73EFEA062FFF728FE10
:100A500007460D463046FFF723FE3A462B4603F085
:100A6000A1FC0022144BFFF7F0FC144A144BFFF7D3
:100A70005EFDFFF728FE0546E062B4F90600FFF7C9
:100A8000E5FD4FF066320F4BFFF751FDFFF71BFE00
:100A9000206301462846E26900F052F82169FFF719
:100AA000B7FB09496063E26A0A60226BC1E9012071
:100AB000BDE8F08114000020008066401F85EB51E6
:100AC000B81E0940666630405801002070B50B4CD6
:100AD000084E0949206BFFF7A1FB0546606B3146C4
:100AE00080F00040FFF79AFB2946FFF791FBE06496
:100AF00070BD000000008242333313401400002018
:100B0000FEE7000010B54FF480710B4800F0BCF90F
:100B10000A49002210B10A604A600BE00868401CD4
:100B200008601E2806DB486810B90120886048600C
:100B30000A6010BD8A6010BD00080140000000205E
:100B40002DE9F04117460E4C88460E4A0B4E0146E1
:100B500010466660FFF762FB054639464046FFF7E0
:100B60005DFB2168FFF702FB3146FFF757FB294683
:100B7000FFF7FCFA2060BDE8F081000048E17A3F11
:100B80000C00002000D7A33C704772B6FEE70000BF
:100B9000064A10B5911E881E01F03AFF034ABDE8CF
:100BA0001040921D911E881E01F04ABF18000020BF
:100BB0000B4810B50168486A002204B209488463F2
:100BC0004A6209490B68596A09B24942C1635A62CB
:100BD000C26D2244C265026E1144016610BD000060
:100BE0001006002014000020A006002010B590F888
:100BF00021100024022903D00421816301243DE057
:100C000001680A6822F00E020A6001680A6822F090
:100C100001020A601A4A0168914201D1012121E0D2
:100C2000174A1432914201D110211BE0144A283294
:100C3000914201D1891515E0114A3C32914201D10E
:100C400089140FE00E4A5032914202D14FF48031A4
:100C500008E00B4A6432914202D14FF4801101E066
:100C60004FF08071064A083A5160012180F8211046
:100C7000002180F82010416B01B18847204610BD4B
:100C80000800024070B5044600F008F90546601CF3
:100C900002D004480078044400F000F9401BA04250
:100CA000FAD370BD440100202DE9F84FDFF8B89168
:100CB000002409F1040A0AF1040B23460F270BF163
:100CC000040EC9E00125A5402A40AA427DD1674E05
:100CD000D1F804C0ACEB0608B44532D014DCBCF14A
:100CE000030F3AD009DCBCF1000F2AD0BCF1010F90
:100CF0001CD0BCF1020F31D11DE0BCF1110F17D097
:100D0000BCF1120F2AD119E0B8F5881F19D006DC02
:100D1000B8F5803F15D0B8F5801F1FD111E0B8F5A8
:100D2000001F0ED0B8F5041F18D10AE0CB6815E0FB
:100D3000CB681B1D12E0CB6808330FE0CB680C3387
:100D40000CE08B682BB1012B4FF0080303D04561F9
:100D500004E0042302E0056100E00023FF2A01D83B
:100D6000064601E000F104064FEA840501D9A5F129
:100D70002005D6F8008007FA05FC28EA0C0803FADB
:100D800005F548EA0508C6F800804D68ED0062D513
:100D9000374DAE6946F00106AE61AD6924F0030639
:100DA00005F001050095334D06EB050CDCF8085005
:100DB000A607360F07FA06F825EA0805DFF8B88017
:100DC000404503D14FF0000817E044E0DFF8AC8065
:100DD000404502D14FF001080FE0DFF8A480404504
:100DE00002D14FF0020808E0DFF89880404502D1B8
:100DF0004FF0030801E04FF0040808FA06F848EA4B
:100E00000508CCF808804D68D9F80060ED034D4620
:100E100001D5164300E096432E604D68DAF8006075
:100E2000AD03554601D5164300E096432E604D684C
:100E3000DBF80060ED025D4601D5164300E0964305
:100E40002E604D68DEF80060AD02754601D5164390
:100E500000E096432E60641C0D682A46E5407FF44E
:100E600031AFBDE8F88F0000000401400000111010
:100E7000001002400000014000080140000C014049
:100E800000100140001401408068084000D001209B
:100E900070470AB1016170470904FBE701488068A7
:100EA000704700004401002070B5040025D094F87C
:100EB0003D00002520B984F83C50204600F078FA27
:100EC000242084F83D002068016821F001010160C0
:100ED0002068016841F4004101602068016821F444
:100EE0000041016000F0CAFB4D4A6168914201D89F
:100EF0004C4900E04C49884201D2012070BD4B4969
:100F00002368B0FBF1F15E6826F03F060E435E6099
:100F10006368934206D94FF4967359434FF47A733A
:100F2000B1FBF3F12368491C1E6A26F03F063143EA
:100F300019626168914210D84900401EB0FBF1F27D
:100F4000521CC2F30B02042A01D2042022E0B0FB9F
:100F5000F1F0401CC0F30B001CE0A268F2B301EBFF
:100F6000C10303EB0116431EB3FBF6F35B1C43F412
:100F700080431B0549D092B301EBC10202EB011182
:100F8000401EB0FBF1F0401CC0F30B0040F4804069
:100F900040F400402168CA694CF6FF739A4310433D
:100FA000C861D4E9071001432068026822F0C0023A
:100FB00011430160D4E9030101432068826848F2CB
:100FC000FF339A4311438160D4E905010843216846
:100FD000CA6822F0FF021043C86001E00EE016E08C
:100FE0002068016841F0010101602564202084F837
:100FF0003D00256384F83E50002070BD01EB4106A2
:10100000431EB3FBF6F35B1CB3E70120C2E701EB21
:101010004101401EB0FBF1F0401CC0F30B00B7E7EC
:10102000A086010080841E0000093D0040420F00A0
:101030002DE9FF4F83B00025DDE910799A469346EC
:101040000446DDF848800095FFF728FF064694F82F
:101050003D0020287CD11923012285492046009695
:1010600001F0FEFB0028F5D194F83C0001286FD078
:10107000012084F83C0020680168C90703D1016899
:1010800041F0010101602068016821F40061016004
:10109000222084F83D00402084F83E0025646762E9
:1010A000A4F82A90608D20857248E062CDE9008620
:1010B00053465A462046049901F0DAFA00287DD1B9
:1010C000208DDFF8B491202768B1012814D00228C0
:1010D000206801681ED041F4806101602068416988
:1010E00080690090B6E020684169816900910168DB
:1010F00041F400710160ADE02068016821F4806175
:10110000016072B62068416981690091016841F40B
:1011100000710AE041F40061016072B62068416923
:1011200081690091016821F48061016062B691E0FB
:10113000032868D801280CD0022843464FF000024B
:101140004946204600960FD001F08AFBB0BB10E064
:101150008BE032464146204601F001FC70BB20681E
:101160000069616A08706CE001F07AFB30BB72B60E
:1011700034E02068016821F48061016072B6206863
:101180000069616A0870606A401C6062208D401EC0
:101190002085608D401E6085384846F2A8110068A1
:1011A000B0FBF1F0C0EBC00000EB80000090401EEF
:1011B000009008D020684069C04300E029E0400763
:1011C0000CD50098F3E744F8305F6773A573206986
:1011D00040F02000206162B625731AE020680168A3
:1011E00041F40071016020680069616A0870606AFA
:1011F000401C6062218D491E2185618D491E6185DB
:1012000062B621681BE032464146204601F0A7FB4A
:1012100018B1012007B0BDE8F08F20680069616A4D
:101220000870606A401C6062218D491E2185618DB5
:10123000491E618521684A69D24352070AD4096967
:101240000170606A401C6062208D401E2085608DA8
:10125000401E6085208D00287FF46AAF84F83D70C1
:1012600084F83E5084F83C50D4E70220D2E70000D6
:10127000020010000000FFFF0400010050010020E8
:101280002DE9FF4F83B09A46DDE911979346044656
:10129000DDF84080FFF702FE054694F83D00202867
:1012A0007FD11923012240492046009501F0D8FA48
:1012B000002876D194F83C00012872D0012084F8EF
:1012C0003C0020680168C90703D1016841F00101B1
:1012D00001602068016821F400610160212084F828
:1012E0003D00402084F83E0000262664C4F8248097
:1012F000A4F82A90608D20852C48E062CDE9007525
:1013000053465A462046049901F030FA70B930E04D
:101310002A463946204601F055FB58B1206C042876
:1013200004D12068016841F400710160012007B018
:10133000BDE8F08F606A216800780861606A401C2F
:101340006062218D491E89B22185628D521E62859F
:1013500022685369DB435B070BD469B100781061E5
:10136000606A401C6062208D401E2085608D401E9A
:101370006085208D0028CBD12A463946204601F0D1
:1013800049FA0028CAD154F83D0B016841F40071B4
:101390000160202004F81E09E67766770020C6E782
:1013A000FFE70220C3E70000020010000000FFFF7B
:1013B00010B586B00021009101910291039100685F
:1013C0001349884222D1134CA06940F00800A06163
:1013D000A069694600F0080004904FF44070009046
:1013E00012200190032003900B48FFF75DFC0B488F
:1013F000416841F0E06141F002014160E06940F480
:101400000010E061E06900F40010049006B010BD27
:101410000054004000100240000C01400000014058
:1014200002488168027811448160704744010020BD
:10143000074810B5016841F010010160032000F079
:1014400075F8002000F006F800F024F8002010BD28
:101450000020024070B50D4D04464FF47A71287893
:10146000B1FBF0F00A490968B1FBF0F000F0EDFAC9
:1014700048B9102C07D200222146501E00F036F841
:1014800000206C6070BD012070BD00004401002090
:10149000500100200C4808B5816941F001018161CB
:1014A000816901F001010091C16941F08051C16180
:1014B000C06900F0805000900448416821F0E0616C
:1014C00041F00071416008BD001002400000014081
:1014D000002809DB00F01F02012191404009800033
:1014E00000F1E020C0F8001170470000F0B40E4B8E
:1014F0001B680C46C3F30223C3F10705042D00D972
:101500000425191D072901D2002300E0DB1E012656
:1015100006FA05F1491E214099409E40761E16406C
:101520003143F0BC02F05CB90CED00E0064900F07C
:10153000070208684FF6FF03184040EA0220034AFA
:1015400010430860704700000CED00E00000FA0551
:101550002DE9F0470F46050061D0434E306800F09A
:101560000700B84209D2306820F0070038433060E5
:10157000306800F00700B84251D128683B4C810721
:1015800012D5400703D5606840F4E06060602878B9
:10159000000703D5606840F4605060606068A96827
:1015A00020F0F000084360602878C00728D0686801
:1015B000012810D02168022810D0890700292EDACE
:1015C000616821F0030101436160FFF767FC804619
:1015D00041F288390DE021688903EFE78901EDE7E1
:1015E000FFF75CFCA0EB0801494502D90320BDE8E8
:1015F000F0876068696800F00C00B0EB810FEFD1F4
:10160000306800F00700B8420BD9306820F00700BE
:1016100038433060306800F00700B84201D0012044
:10162000E5E72878400705D56068E96820F4E060C0
:10163000084360602878000706D56068296920F4AF
:10164000605040EAC100606000F038F86168084A04
:10165000C1F30311515CC8400649086006480068A0
:10166000FFF7F8FE0020C2E7002002400010024011
:10167000A0590008500100204801002004480549F5
:1016800000684968044AC1F30221515CC8407047B0
:101690005001002000100240B059000804480549DC
:1016A00000684968044AC1F3C221515CC8407047D0
:1016B0005001002000100240B059000812A185B06E
:1016C0000FC98DE80F0014A0144A006804905168F7
:1016D000134801F00C03042B10D0082B0ED1C1F3DA
:1016E0008343C9031DF803000AD5516804AAC1F356
:1016F0004041515C0A4A5043B0FBF1F005B07047DD
:1017000008494843FAE700000203040506070809F0
:101710000A0B0C0D0E0F1010010200000010024009
:1017200000127A0000093D002DE9F84F040070D046
:101730002078C04DC00749D06868C0F381000128F7
:1017400007D06868C0F38100022809D16868C00327
:1017500006D52868800339D560680028E7D035E0D1
:101760006068B0F5803F0BD010B1B0F5A02F11D05C
:10177000286820F480302860286820F4802002E067
:10178000286840F480302860606890B1FFF786FBDD
:1017900006460AE0286840F480202860F0E700BF91
:1017A000FFF77CFB801B642873D828688003F7D57B
:1017B0000CE0FFF773FB064605E000BFFFF76EFB8A
:1017C000801B6428F0D828688003F7D420789A4ECC
:1017D00080074FF001094FF0000839D5686810F014
:1017E0000C0F07D06868C0F38100022809D168682F
:1017F000C00306D42868800714D52069012808D1C1
:1018000010E02069B0B1C6F80090FFF747FB07462B
:1018100005E00AE1FFF742FBC01B0228C4D8286894
:101820008007F7D52868616920F0F80040EAC10018
:1018300028600DE0C6F80080FFF730FB074604E0A3
:10184000FFF72CFBC01B022823D828688007F7D499
:10185000207800072CD57948A169D9B1C0F800904B
:10186000FFF71CFB074604E0FFF718FBC01B02282C
:101870000FD8686A8007F7D571484FF4FA510068AD
:10188000B0FBF1F0009000BF0098411E0091FAD229
:101890000EE080E0C0F80080FFF700FB074604E0A0
:1018A000FFF7FCFAC01B022875D8686A8007F7D4D6
:1018B0002078400760D5E8690027C00008D4E869AF
:1018C00040F08050E861E869012700F08050009006
:1018D0005C480168C90513D40168834641F48071EE
:1018E0000160FFF7DBFA824606E000BFFFF7D6FA99
:1018F000A0EB0A0064284ED8DBF80000C005F5D53F
:10190000E06801280AD008B1052813D0286A20F021
:1019100001002862286A20F0040002E0286A40F0F2
:1019200001002862E06841F2883B98B1FFF7B6FAFF
:1019300082460BE0286A40F004002862EEE700BF10
:10194000FFF7ACFAA0EB0A0159455AD8286A80077C
:10195000F6D50CE0FFF7A2FA824605E0FFF79EFA03
:10196000A0EB0A0159454CD8286A8007F6D41FB16C
:10197000E86920F08050E861E06988B36968C1F3E4
:101980008101022944D00228C6F8608004D0FFF704
:1019900085FA044638E034E0FFF780FA074604E0B1
:1019A000FFF77CFAC01B02282BD828688001F7D4E7
:1019B000206AB0F5803F05D16868A16820F4003046
:1019C00008436860D4E908010843696821F4741188
:1019D00008436860C6F86090FFF760FA044606E0C6
:1019E00025E000BFFFF75AFA001B022809D8286833
:1019F0008001F7D51BE000BFFFF750FA001B02285B
:101A000002D90320BDE8F88F28688001F4D40EE0E5
:101A10000128F7D06868226A00F48031914204D12D
:101A2000616A00F47010884201D00120EAE70020CA
:101A3000E8E70000001002400000424280044242F9
:101A40005001002000700040704710B5401EB0F1FA
:101A5000807F01D3012010BD4FF0E02460610F2191
:101A6000601701F0BDFE0020A0610720206100206A
:101A700010BD10B5FFF7E8FF10BD704770470000BC
:101A800070B590F83C20012A26D0012480F83C4013
:101A9000022280F83D2003685A689D6822F0700693
:101AA0000A6832435A600D4B02689A4208D0B2F17C
:101AB000804F05D00A4B9A4202D00A4B9A4204D179
:101AC000496825F080031943916080F83D4000216A
:101AD00080F83C10084670BD022070BD002C01400B
:101AE00000040040000800402DE9F0410D460400CC
:101AF00003D094F83D0018B108E00120BDE8F08162
:101B0000002084F83C00204600F040F8022084F8D1
:101B10003D002068816844F2070291438160211DE5
:101B2000206801F047FC226890689169166A2B686A
:101B3000AF69034340F20330814341EA0721A868BB
:101B4000EF6908434FF6FC418843E96840EA072003
:101B5000014328692F6A000140EA07300843696899
:101B60006D6926F0220646EA05152943936022682E
:101B7000906154F8460B0162012004F81F09E075DA
:101B80002076E0762077A0750020B7E700B585B015
:101B90000021009101910291039101681A48B1F16D
:101BA000804F1BD0194A914216D1C16941F00401FE
:101BB000C161C16901F004010491816941F008012A
:101BC00081618069694600F008000490C02000909F
:101BD0000F4800BFFFF768F805B000BDC16941F0CC
:101BE0000101C161C16901F001010491816941F004
:101BF000040181618069694600F0040004900320BB
:101C000000900448E6E70000001002400008004091
:101C1000000C01400008014070B590F83E60044699
:101C200090F83F5090F8423090F84320022021B1C4
:101C300004290ED0012E1BD114E0012E18D1012B46
:101C400016D184F83E0084F8420001220021206869
:101C500020E0012D0CD1012A0AD184F83F0084F83C
:101C6000430014E0012D03D1012B01D1012A01D041
:101C7000012070BD84F83E0084F83F0084F84200E3
:101C800084F8430001220021206801F0C9FB0122F1
:101C90000421206801F0C4FB2068016841F00101C3
:101CA0000160002070BD000070B51F4CA04216D12D
:101CB0001E4801680A0612D41D4D4A0610D541F08F
:101CC000800101600C21204600F080FB2860206824
:101CD000016A21F4005101622068016A016270BD4D
:101CE00000214022296002602068026A41F211133B
:101CF0001A4207D1026A9B101A4203D1026822F0ED
:101D000001020260206841622068016A21F40051EA
:101D100001622068016A41F4005101622068016893
:101D200041F00101016070BDC80500203C010020A8
:101D3000400100202DE9F041054690F83C000C469A
:101D4000012836D0012085F83C008AB3042A42D00D
:101D50002868082A51D0D4E90023E168066A26F4ED
:101D600080560662C669076A26F4407646EA03236F
:101D70004FF6FF7606EA013123F4704319434FF41E
:101D8000005627F4005306EA02321A43C161026288
:101D90002868C16921F44061C1612868C169A268ED
:101DA00041EA0221C161002085F83C00BDE8F081D4
:101DB00001E00220FAE7D4E90012E368286801F0A4
:101DC000DFFB2868816921F00C0181612868816945
:101DD000A26811430FE0D4E90012E368286801F01B
:101DE000FBFB2868816921F4406181612868816971
:101DF000A26841EA02218161D5E7D4E90027267B68
:101E0000016A21F480710162C169036A21F0030152
:101E1000394321F0F00731074FF4007647EA1161AA
:101E200023F4007306EA02221A43C16102622868A1
:101E3000C16921F00C01C1612868C169A268114320
:101E4000B0E710B5040003D094F83D0010B107E0EE
:101E5000012010BD002084F83C00204600F01EF850
:101E6000022084F83D00211D206801F0A3FA012022
:101E700084F8460084F83E0084F83F0084F840006F
:101E800084F8410084F8420084F8430084F8440058
:101E900084F8450084F83D00002010BD00B585B0F1
:101EA0000021009101910291039100681649884236
:101EB00027D11648816941F400618161816901F48B
:101EC00000610491816941F0040181618069694682
:101ED00000F0040004904FF4006000900C48FEF7FE
:101EE000E3FE002211461920FFF700FB1920FFF73F
:101EF000EFFA002211461B20FFF7F8FA1B20FFF72C
:101F0000E7FA05B000BD0000002C014000100240BF
:101F10000008014010B5044651B104290DD008292C
:101F200010D094F8410094F84520012811D10EE01A
:101F300094F83E0094F84220F7E794F83F0094F8B4
:101F40004320F2E794F8400094F84420EDE7012A9A
:101F500001D0012010BD022051B1042911D008295F
:101F600018D084F8410084F845000C291BD136E0D4
:101F700084F83E0084F842002068C26842F0020201
:101F800010E084F83F0084F843002068C26842F003
:101F9000040207E084F8400084F844002068C26826
:101FA00042F00802C2600122206801F039FA0E49AD
:101FB0002068884208D0B0F1804F05D00B49884294
:101FC00002D00B49884204D1816801F0070106293B
:101FD00003D0016841F001010160002010BD2068BC
:101FE000C26842F01002DDE7002C0140000400400E
:101FF0000008004070B50446006801694FF0000514
:10200000C943890715D4C168C943890711D4E91E9A
:10201000016101202077206880698007204602D076
:10202000FFF742FE04E000F0BFF8204600F062F93E
:10203000257720680169C943490717D4C168C94396
:10204000490713D46FF00401016102202077206852
:10205000806910F4407F204602D0FFF725FE04E09F
:1020600000F0A2F8204600F045F9257720680169C4
:10207000C943090716D4C168C943090712D46FF0D0
:1020800008010161042020772068C069800720468C
:1020900002D0FFF709FE04E000F086F8204600F0C9
:1020A00029F9257720680169C943C90617D4C16891
:1020B000C943C90613D46FF01001016108202077CD
:1020C0002068C06910F4407F204602D0FFF7ECFD85
:1020D00004E000F069F8204600F00CF9257720684C
:1020E0000169C943C90708D1C168C943C90704D1F7
:1020F000891E0161204600F04DF920680169C9433D
:10210000090609D4C168C943090605D46FF08001E6
:1021100001612046FFF7B1FC20680169C943490607
:1021200009D4C168C943490605D46FF04001016173
:10213000204600F060F920680169C94389060BD484
:10214000C168C943890607D46FF0200101612046A8
:10215000BDE87040FFF792BC70BD000000B585B0CF
:102160000021009101910291039100680B4988427E
:1021700011D10B48816941F0040181618069694690
:1021800000F004000490C020009002200190039011
:102190000448FEF789FD05B000BD000000040040C2
:1021A0000010024000080140704770B5044690F8E6
:1021B0003C000D4601280AD0012084F83C0042B1C1
:1021C000042A18D0082A2AD00C2A4DD139E002203E
:1021D00070BD206801F032F92068816941F0080182
:1021E00081612068816921F0040181612068816931
:1021F0002A69114311E0206801F048F920688169DB
:1022000041F4006181612068816921F4806181610C
:10221000206881692A6941EA0221816124E02068FD
:1022200001F060F92068C16941F00801C1612068CE
:10223000C16921F00401C1612068C1692A691143A3
:1022400011E0206801F07AF92068C16941F4006169
:10225000C1612068C16921F48061C1612068C169E0
:102260002A6941EA0221C161002084F83C0070BD66
:1022700010B5040003D094F83D0010B107E0012030
:1022800010BD002084F83C00204600F01FF802201A
:1022900084F83D00211D206801F08CF8012084F8AD
:1022A000460084F83E0084F83F0084F8400084F83B
:1022B000410084F8420084F8430084F8440084F824
:1022C000450084F83D00002010BD000008B50068FE
:1022D0000649884208D10648C16941F00201C1613E
:1022E000C06900F00200009008BD0000000400403A
:1022F000001002407047000010B50446022249B1A8
:1023000004290ED0082913D094F84100012816D0D2
:10231000012010BD94F83E000128F9D184F83E2038
:102320000FE094F83F000128F2D184F83F2008E044
:1023300094F840000128EBD184F8402001E084F8B3
:1023400041200122206801F06BF80F492068884283
:1023500003D1426C42F4004242642068884208D0B3
:10236000B0F1804F05D00949884202D0084988421F
:1023700004D1816801F00701062903D0016841F00A
:1023800001010160002010BD002C0140000400404C
:10239000000800400A4988420AD10A490868020632
:1023A00006D4420604D5C243920602D0401C0860FF
:1023B000704740F0800008604FF6FF700249F6E772
:1023C000C80500203C0100204001002002460020FA
:1023D00041B1042909D008290AD00C2901D110687B
:1023E000006C70471068406B70471068806B7047D6
:1023F0001068C06B704770477047000070B5026886
:1024000004461068D168536910F00F0F52D003F0E2
:10241000010501F490762E435FD0C20705D0CA05AE
:1024200003D5E26B42F00102E263420705D5DA0709
:1024300003D0E26B42F00202E263820705D5DA07BD
:1024400003D0E26B42F00402E263020707D501F019
:1024500020022A4303D0E26B42F00802E263E26BFF
:10246000002A33D0800604D5880602D5204601F024
:10247000E4F820684069E16BC0F38010090700D4DC
:1024800028B3204601F0CBF82068416949061AD5E7
:10249000416921F040014161606BA0B12D49416368
:1024A000606BFEF7A3FB002810D0606B416BBDE8AA
:1024B00070400847830610D58B060ED52046BDE830
:1024C000704001F0BAB82046FFF796FF70BD204675
:1024D000FFF792FF0020E06370BD03062BD50B06CB
:1024E00029D594F839002128F6D1A068B0F5805F8D
:1024F00001D12069B0B1206A411C216221680078B5
:102500004860E08C401E0004000CE084E4D12068A8
:10251000C16821F08001C1602068C16841F04001BC
:10252000C16070BD206A0088C0F308005060206A56
:10253000801C2062E5E74006F3D54806F1D5D16856
:10254000204621F04001D160202184F8391000F0AC
:1025500076F870BD0F36000870B5040004D094F80A
:102560003900002510B106E0012070BD84F8385014
:10257000204600F023F8242084F839002068C16840
:1025800021F40051C160204601F09EF820680169E5
:1025900021F4904101612068416921F02A014161E3
:1025A0002068C16841F40051C160E563202084F8CF
:1025B000390084F83A00002070BD000030B585B0C5
:1025C00000240094019402940394006818498842FE
:1025D0002CD11848816941F480418161816901F4FD
:1025E00080410491816941F0040181618069124D4B
:1025F00000F0040004904FF400700090022001905D
:102600000320039069462846FEF74EFB2815CDE9C6
:102610000004694628460294FEF746FB0022114654
:102620002520FEF763FF2520FEF752FF05B030BDE1
:102630000038014000100240000801407047704718
:10264000FEE701684A69D24352050FD46FF48062F5
:102650004A61002140F8301F2022427381730269D1
:1026600042F00402026101730120704700207047AC
:102670002DE9F84F0446006889460B9D016898468D
:10268000174641F4806101602068016841F480715F
:10269000016000954FF0011B0022594620460A9B1D
:1026A00000F0DEF84FF4007A40B120680068C00501
:1026B00001D5C4F840A00320BDE8F88F216809F0D7
:1026C000FE0008612B46284920460A9A00F0FCF8D3
:1026D000F0BB20684169806900902A4620460A992B
:1026E00000F070F940B1206C04283AD120680168EC
:1026F00041F40071016034E0FEB2B8F1010F09D07D
:102700002168380A08612A4620460A9900F05AF9D9
:102710000028E8D1206806612A4620460A9900F080
:1027200051F90028DFD12068016841F4807101600F
:1027300000950022594620460A9B00F091F8002897
:10274000B3D1216809F0FF0040F00100086100E00A
:1027500007E02B46044920460A9A00F0B5F8002805
:10276000AAD00120A8E70000020001002DE9F843EB
:10277000044600680D46DDE908970168984616464C
:1027800041F4807101604B4600224FF00111204658
:10279000009700F065F848B120680068C00502D5D0
:1027A0004FF4007020640320BDE8F883216805F031
:1027B000FE0008613B464A461549204600F084F871
:1027C00088B920684169806900903A4649462046A8
:1027D00000F0F8F848B1206C042804D120680168A2
:1027E00041F4007101600120DEE7F5B2B8F1010F9C
:1027F00009D02168300A08613A464946204600F06F
:10280000E1F80028E7D1206805610020CCE700004E
:102810000200010070B516460D4604460DE0204644
:10282000FFF70FFF08B1012070BD681C05D0FEF74F
:1028300035FB801BA84207D835B120684069C043EA
:102840004007ECD4002070BD002044F8300F202158
:102850006173A073216941F0200121612073E2E7D7
:102860002DE9F0471E4690460D460446C1F3074742
:10287000DDF8209008E0701C06D0FEF70FFBA0EBFF
:102880000900B0420FD876B12068012F18D08069B6
:1028900025EA00000004000C14D000214145EAD0D4
:1028A0000020BDE8F087002044F8300F202161733C
:1028B000A073216941F02001216120730120F0E71C
:1028C0004069E5E70121E9E72DE9F0479A4691469D
:1028D0000E46044600254FF02008C1F3074725E0C7
:1028E00020684069C043400514D42068016841F461
:1028F0000071016021686FF480604861256384F88D
:102900003D8084F83E50206C40F00400206484F840
:102910003C501FE0B9F1FF3F08D0FEF7BFFAA0EB33
:102920000A0149450CD8B9F1000F09D02068012FE0
:1029300013D0806926EA00000004000C0BD0CFE71A
:1029400044F8305F84F80D80A573206940F02000C2
:10295000206125730120BDE8F0874069EAE72DE991
:10296000F041002590460E460446202717E04069B6
:10297000C043C0060CD454F8301B6FF010004861FF
:1029800044F810596777A577206A2062257717E009
:10299000FEF784FAA0EB0800B04208D83EB12068E8
:1029A0004169C9434906E2D40020BDE8F08144F8FA
:1029B000305F6773A573206940F0200020612573A4
:1029C0000120F2E770B516460D4604460DE020469C
:1029D000FFF737FE08B1012070BD681C05D0FEF777
:1029E0005DFA801BA84207D835B120684069C04312
:1029F0000006ECD4002070BD002044F8300F2021E8
:102A00006173A073216941F0200121612073E2E725
:102A10007CB514460D4606466A4606213B2000F06A
:102A20007DF800280BD1BDF8001049BA3180BDF8FF
:102A3000021049BA2980BDF8041049BA21807CBD32
:102A40007CB514460D4606466A460621432000F032
:102A500065F800280BD1BDF8001049BA3180BDF8E7
:102A6000021049BA2980BDF8041049BA21807CBD02
:102A700010B51C48FEF718FA80216B2000F098F87A
:102A800000216B2000F094F8032000F05CF8002097
:102A900000F054F8322000F073F80021382000F0E4
:102AA00087F800216A2000F083F80021232000F03D
:102AB0007FF88021372000F07BF8752000F014F8B3
:102AC000682801D0012010BD01216B2000F070F8B2
:102AD00000216C2000F06CF8322000F051F800204A
:102AE00010BD0000740500201FB500218DF80C10EA
:102AF00040F6FF73012203A98DE80E00134602463B
:102B0000D1210548FEF794FA6420FEF7BBF89DF842
:102B10000C0004B010BD0000740500200EB540F696
:102B2000FF730092CDE9011302460123D12102482F
:102B3000FEF77EFA00200EBD74050020C006010ECF
:102B40001C2000F035B8C006010E1B2000F030B884
:102B5000BC2801D3012110E0622801D302210CE03E
:102B60002A2801D3032108E0142801D3042104E01A
:102B70000A2801D3052100E006211A2000F018B828
:102B800010B504464FF47A70844201D9044602E03D
:102B9000042C00D20424B0FBF4F0401EC1B2192072
:102BA00000F006F86008BDE81040FFF7D1BF000054
:102BB0001FB540F6FF738DF80C10012203A98DE8B4
:102BC0000E0013460246D0210448FEF759FB64204C
:102BD000FEF758F804B0002010BD00007405002076
:102BE0002DE9F04385B000243A4800940194029402
:102BF0000394816941F010018161816901F0100144
:102C00000491816941F020018161816901F0200115
:102C10000491816941F004018161816901F004013D
:102C20000491816941F00801816180692A4F00F0B7
:102C300008004FF400550490002229463846FEF75C
:102C400028F9DFF8989000221C214846FEF721F968
:102C5000DFF88C8000224FF203014046FEF719F99D
:102C60000095022601250396CDE9015469463846B0
:102C7000FEF71AF804200327CDE90005CDE9024745
:102C800069464846FEF710F81820CDE90005CDE961
:102C9000024669464846FEF707F84EF20300CDE9C2
:102CA0000005CDE9024669464046FDF7FDFF2803D1
:102CB000CDE90005CDE9024769464046FDF7F4FF3E
:102CC00028028DE8310069464846FDF7EDFF05B062
:102CD000BDE8F083001002400010014000080140F0
:102CE000000C01400D4810B50B4901600C494160D2
:102CF00000214FF480428160C0E90312416181618B
:102D0000C1610162FEF7D0F8002803D0BDE8104091
:102D1000FDF73BBF10BD00000054004074050020CB
:102D2000A086010010B586B00024194805940494CB
:102D30000094019402941549039401604721C0E96D
:102D400001144FF6FF71C0E9031444618461FFF779
:102D500078F808B1FDF719FF049404A90C4805940C
:102D6000FEF78EFE08B1FDF710FF0120CDE900400F
:102D700002940C22694606480394FEF7DBFF002804
:102D800001D0FDF702FF06B010BD0000002C01408D
:102D9000C805002010B58CB024216846FDF7DBF98A
:102DA0000024154809944FF080410A94C0E90014AA
:102DB0004FF6FF71C0E90241046184610320CDE94F
:102DC00000040120CDE902040494CDE905400794F4
:102DD000694609480894FEF787FE08B1FDF7D5FE5D
:102DE000099409A904480A94FEF74AFE002801D074
:102DF000FDF7CBFE0CB010BD1006002010B58AB058
:102E0000002407941C2168460894FDF7A4F91B4888
:102E1000194901600321C0E901144FF47A71C0E936
:102E200003148461FFF724FA08B1FDF7AEFE07949E
:102E300007A912480894FEF723FE08B1FDF7A5FE86
:102E4000602000906420CDE90104002269460B480F
:102E50000494FFF7AAF908B1FDF797FE042269462A
:102E60000648FFF7A2F908B1FDF78FFE0348FFF708
:102E700075F90AB010BD000000040040580600209B
:102E800010B58CB024216846FDF765F9002416487A
:102E9000099414490A94C0E900144FF6FF71C0E97F
:102EA0000241046184610320CDE900040120CDE9E1
:102EB00002040494CDE90540079469460A48089441
:102EC000FEF712FE08B1FDF760FE099409A9064855
:102ED0000A94FEF7D5FD002801D0FDF756FE0CB090
:102EE00010BD000000080040A00600200C4810B5EE
:102EF0000A4901604FF4E1314160002181600C22F8
:102F0000C160C0E904128161C161FFF725FB00289F
:102F100003D0BDE81040FDF738BE10BD00380140B9
:102F2000E8060020FEE700002DE9F047214C60692B
:102F3000FDF783FB0646616EE06CFDF769F9054617
:102F40003146FDF713F906466064A069FDF775FB8D
:102F500001462846FDF70AF90546A0643046FDF70C
:102F600086FB06462846FDF782FB4FF47A78124D21
:102F70008146464500DD6564606CFDF778FB0F4FC8
:102F80000F4EB84200DA6664C14500DDA564A06C4E
:102F9000FDF76DFBB84200DAA664A06CFDF767FB95
:102FA0000546606CFDF763FB2946BDE8F04700F07D
:102FB000ABB800001400002000007A4418FCFFFFAA
:102FC00000007AC4FEE700000A4810B5021F0A4C50
:102FD000116800EB0110491C03882380074C4368EB
:102FE0002360074C83682360064BC068186011603B
:102FF00010BD000094000020680500202000002083
:10300000280000202C0000202DE9F04186B000248B
:103010001D480094019402940394816941F00801D1
:103020008161816901F008010491816941F0100119
:1030300081618069154F00F010004FF40055049035
:10304000002229463846FDF724FFDFF8448000229D
:103050004FF470414046FDF71CFF00950226012504
:103060000396CDE9015469463846FDF71DFE4FF43D
:103070006040CDE90005CDE9024669464046FDF7CE
:1030800013FE06B0BDE8F0810010024000100140C0
:10309000000C01407047000010B5104C01220421C3
:1030A0002046FDF7F6FE0120FDF7ECFD002204218D
:1030B0002046FDF7EEFE0A4881680A060CD5C26874
:1030C000890602EB9121AA22514342F2107291FB30
:1030D000F2F101600021816010BD00000008014094
:1030E000340100207047000005480088002805D101
:1030F000044800680A2801DAFFF766BF704700003D
:1031000068050020900000202DE9F0411E4F1F4E61
:103110000C4605000DD5012211463846FDF7B9FED3
:10312000002202213846FDF7B4FE31686842486348
:103130000BE0002201213846FDF7ABFE01220221FF
:103140003846FDF7A6FE30684563114D002C0EDAB7
:10315000012208212846FDF79CFE00221021284666
:10316000FDF797FE316860428863BDE8F081002278
:1031700008212846FDF78DFE012210212846FDF783
:1031800088FE30688463F0E7000C01405806002098
:10319000000801400649002031F8102012B1521EEB
:1031A00021F81020401CC0B20528F5D3704700005C
:1031B000680500202DE9F0412C4CDFF8A8802A4F4B
:1031C000D4E91701084400EBD0704010FDF735FA40
:1031D00000212166E165FDF763FA4FF03332244B9D
:1031E000FDF733F905460E46606DFDF759FA4FF0CD
:1031F0006632204BFDF729F92A463346FDF77EF863
:10320000FDF761FA206505466065E068FDF715FA8F
:103210002946FCF7FDFF05460146A06DFCF7A6FF19
:10322000A065FDF724FAB0F5617F01DCA06D01E037
:103230001148A065FDF71BFA10F5617F01DA0F4810
:10324000A065A06EE0663946A06DFCF7E7FF064674
:1032500041462846FCF7E2FF3146FCF787FFA066AF
:10326000BDE8F081000024411B2FDD3D140000204B
:103270003333D33F6666E63F00006144000061C41B
:1032800070B50B4CE16EA06E0E46FCF7C1FF054613
:10329000206F401CFDF7D1F92946FCF7BFFF054917
:1032A000FCF7EEFF3146FCF761FF606670BD000081
:1032B000140000200000C84170B5FDF723FCFFF7A3
:1032C00069FF1B4C1B4D2068401C20602868401C77
:1032D0002860FFF7D5FF20680026052803D3266065
:1032E000FDF766FC1DE0012806D0022809D003285E
:1032F0000AD0042813D014E0FDF74AFCFDF782FB46
:103300000FE0FDF7E3FB0CE00B4C2068401C206055
:10331000052806D3FFF74EFF26602E6001E0FFF779
:1033200003FEFEF77DF8BDE87040FEF7A2BB00008B
:1033300088000020840000208C00002030B58FB071
:1033400028216846FCF707FF14210AA8FCF703FFB1
:1033500001210804CDE90010002402940225049103
:10336000CDE907504FF4E01009906846FEF7DCF90C
:1033700008B172B6FEE70F20CDE90A054FF4806070
:10338000CDE90C4002210AA80E94FEF7E1F80028CE
:1033900001D072B6FEE70FB030BD70470148FEF7AE
:1033A00029BE0000C80500200148FEF723BE00002A
:1033B000C8050020F0B50268164B174C174D4FF0AA
:1033C0008047984205D0B84203D0A04201D0A8421D
:1033D00003D122F070064A683243984205D0B842C1
:1033E00003D0A04201D0A84203D122F44074CA689D
:1033F00022434C6922F08002224302608A68C26242
:103400000A688262984201D1096901630121416120
:10341000F0BD0000002C0140000400400008004006
:1034200010B501F01F030121046A99408C43046226
:10343000016A9A401143016210BD000030B5026A72
:1034400022F001020262026A4368846924F0730573
:103450000C682C4322F002058A682A430A4DA842D0
:103460000BD122F00805CA6823F440732A434D6942
:1034700022F004021D438B692B4343608461496839
:103480004163026230BD0000002C014030B5026A89
:1034900022F010020262026A436884690D6824F413
:1034A000E64444EA05248D6822F0200242EA05122F
:1034B0000B4DA8420ED1CD6822F0800242EA0512DF
:1034C0004D6923F4406343EA85038D6922F040028D
:1034D00043EA85034360846149688163026230BDC9
:1034E000002C014030B5026A22F480720262036A45
:1034F0004268C46923F4007324F073050C682C43FC
:103500008D6843EA05230C4DA8420ED1CD6823F403
:10351000006343EA05234D6922F4405242EA051252
:103520008D6923F4806342EA05124260C4614968F0
:10353000C163036230BD0000002C014030B5026A57
:1035400022F480520262046A4268C3690D6823F45F
:10355000E64343EA05238D6824F4005444EA053425
:10356000064DA84204D14D6922F4804242EA8512F8
:103570004260C36149680164046230BD002C0140AF
:1035800070B5046A24F0010404628469056A0F4E70
:10359000B04208D0B0F1804F05D00D4EB04202D0FD
:1035A0000C4EB04203D124F00304144301E044F074
:1035B00001041A0724F0F00444EA126225F00A0319
:1035C00001F00A0119438261016270BD002C0140C3
:1035D000000400400008004030B5046A24F01004E4
:1035E00004628469056A24F4407444EA022222F4E5
:1035F00070444FF6FF7202EA03322243A02425F002
:10360000A00304EA011119438261016230BD10B5C3
:10361000406A0021C185C184FEF7EEFE10BD01683D
:10362000CA6822F49072CA6001684A6922F00102F5
:103630004A61202180F83A10704710B590F83A108E
:10364000222901D0022010BD82684FF480539A4293
:1036500001D1016921B1816A9A421BD04AB10AE0C5
:103660000268816A5268C2F308020A80816A891C72
:1036700008E0026972B10268526802F07F020A70C3
:10368000816A491C8162C18D491E0904090CC185EA
:1036900003D016E002685268F1E70168CA6822F0B8
:1036A0002002CA600168CA6822F48072CA60016898
:1036B0004A6922F001024A61202180F83A10FEF79F
:1036C000BDFF002010BD000070B504460068016910
:1036D000E26821F44051114301612169A068084367
:1036E000616908432168CA6841F20C639A43024346
:1036F000CA6020684169A26921F4407111434161A7
:103700001E492068884202D1FDF7C8FF01E0FDF79D
:10371000B5FF00EBC00101EB00126068642180007E
:10372000B2FBF0F3B3FBF1F36FF018067343B2FB97
:10373000F0F5B2FBF0F605EB8305322303EB05153C
:10374000B5FBF1F5B6FBF1F605F0F00505EB061556
:10375000B2FBF0F6B2FBF0F0B0FBF1F06FF0180244
:10376000504306EB800003EB0010B0FBF1F0216842
:1037700000F00F002844886070BD00000038014050
:103780000148FEF73BBE0000E8060020FEE700000F
:103790000FB4084B10B504A902AA039800F06AF907
:1037A000044602A9002000F0E8FC204610BC5DF8A9
:1037B00014FB00007B410008490050EAC12018BFFB
:1037C00004204A0D18BF40F0010040F2FF72B2EB36
:1037D000515F08BF40F00200012808BF0520704774
:1037E0000907090E002804DB00F1E02080F800142E
:1037F000704700F00F0000F1E02080F8141D7047C2
:103800002DE9F0414F1E00EBC7010446D1E900014C
:1038100015461E4637F006020DD02A463346FCF701
:1038200014FE7F1E04EBC703D3E90023FCF766FDFB
:1038300037F00602F1D1022F25D0042F13D0062F26
:1038400018BFBDE8F0812A463346FCF7FEFDD4E9F7
:103850000A23FCF753FD2A463346FCF7F6FDD4E96C
:103860000823FCF74BFD2A463346FCF7EEFDD4E96E
:103870000623FCF743FD2A463346FCF7E6FDD4E970
:103880000423FCF73BFD2A463346FCF7DEFDD4E972
:103890000223FCF733FD2A463346FCF7D6FDD4E974
:1038A0000023BDE8F041FCF729BD0122FCF7AEBEC4
:1038B000FCF724BD024A00201107FCF7A7BE000058
:1038C00001FDFFFF02E008C8121F08C1002AFAD15B
:1038D00070477047002001E001C1121F002AFBD190
:1038E0007047000001490860704700005401002043
:1038F0002DE9FF5F82B00021DDE90430020DDDF823
:1039000040B0034318D044F61050A2F2FF324243B5
:103910001514119801281FD0A5EB0B00401C5FEA7D
:10392000000A4FF000064E4FDFF83891B04650467F
:1039300015D5CAF1000413E0119801244AA3012807
:1039400001D16FEA0B010298119AC0E90031C0E978
:10395000024206B0BDE8F09FCBF10000DFE704466D
:103960000021404A491842EB0450CDE9001012E012
:10397000E00707D032463B4640464946FCF765FD26
:103980008046894632463B4610461946FCF75DFDA7
:1039900006460F466410002CEAD1DDE90401DDE99A
:1039A0000023BAF1000F06DAFCF74FFD42464B4602
:1039B000FCF74BFD05E0FCF7BAFD42464B46FCF731
:1039C000B6FD04460E460022284BFCF7C5FF03D87F
:1039D0004FF0FF30014607E00022254B20463146DC
:1039E000FCF78CFCFCF787FF102409E0002C0ADBB5
:1039F0000A220023FCF799FE039B30321A55641EFD
:103A000050EA0102F2D1641C039AC4F11103144478
:103A1000119A012A03D0012208430DD10AE008437C
:103A200004D000204FF0110B119072E7A3EB0B05AF
:103A30006D1E0DE05B4504DD4FF0000205F1010550
:103A400004E003DA4FF00002A5F10105002AECD0F2
:103A500002981199C0E90231C0E9004579E70000F8
:103A6000000014400000F03F300000000000F04370
:103A70000000E03F2DE9FF4F95B09A468846064684
:103A80000025EEE1252877D100242746F94A0121B7
:103A9000039400E0044316F8013F203B01FA03F0D1
:103AA0001042F7D130782A2811D06FF02F033078E8
:103AB000A0F13002092A16D8039A44F0020402EB5E
:103AC000820203EB42021044761C0390EFE758F8A1
:103AD000042B0392002A03DA504244F4005403906A
:103AE00044F00204761C30782E2816D116F8010F07
:103AF00044F004042A280DD06FF02F023078A0F192
:103B00003003092B09D807EB870302EB4303C718DF
:103B1000761CF3E758F8047B761C30786C280FD0BD
:103B200006DC4C2817D068280DD06A2814D104E090
:103B3000742810D07A280FD10DE044F400140AE064
:103B400044F4801401E044F440147278824202D1BB
:103B500004F58014761C761C307866280BD013DCB4
:103B6000582877D009DC002875D04528F6D046289B
:103B7000F4D047281AD193E118E0632835D064289F
:103B800079D0652812D18BE1702873D008DC6728C2
:103B9000F1D069286FD06E280DD06F2806D1ACE027
:103BA00073282CD0752874D0782853D05246179992
:103BB00090476D1C54E1C4F30250022809D0032839
:103BC0000DD0D8F8001004280DD00D6008F10408BD
:103BD00046E1D8F80010EA17C1E90052F6E7D8F834
:103BE00000100D80F2E70D70F0E718F8041B8DF857
:103BF000001000208DF80100EB46012003E058F88A
:103C000004BB4FF0FF3061074FF0000102D40DE01C
:103C100009F101018946B9420FDA8145F8DB1BF849
:103C200009100029F4D108E009F101018946814217
:103C3000FADB1BF809100029F6D103985346A0EBD4
:103C4000090721463846179A00F080FA284400EB0D
:103C5000090507E044E008E10DE01BF8010B5246BE
:103C600017999047B9F10109F7D2534621463846D2
:103C7000179AF2E039E00A21C4F302524FF0000B28
:103C80000091022A06D058F8040BC117032A09D064
:103C90000AE023E008F1070020F00702F2E8020141
:103CA000904605E000B2C117042A01D140B2C11705
:103CB000002906DA0A460021404261EB02012D226A
:103CC00002E0220504D52B228DF80420012203E016
:103CD000E20701D02022F7E7914657E00A2100E0F1
:103CE00010214FF0000B00910BE010214FF0000B62
:103CF00044F004040827009103E008204FF0000B73
:103D00000090C4F30252022A05D058F8040B002197
:103D1000032A08D008E008F1070020F00702F2E8C3
:103D20000201904603E080B2042A00D1C0B24FF0F5
:103D3000000922072AD53278702A07D0DDF800C0A2
:103D40008CF0100C5CEA0B0C05D00EE040228DF8D4
:103D50000420012208E050EA010306D030238DF848
:103D600004308DF8052002229146009B83F0080361
:103D700053EA0B030AD150EA010201D1620705D5CB
:103D800030228DF804204FF001097F1E3278582A26
:103D900004D039A20C920CAA02920BE03BA2F9E7E4
:103DA0005B46009AFCF7C1FC0C9B9B5C029A521E7E
:103DB0000292137050EA0102F2D1029804A9081A83
:103DC00000F1200B600702D524F4803400E00127C5
:103DD0005F4502DDA7EB0B0000E0002000EB0B01CC
:103DE000009003984944401A0390E00306D45346D8
:103DF0002146179A039800F0A9F90544002706E028
:103E000001A85246C05D179990476D1C7F1C4F4515
:103E1000F6DBE0030CD553462146179A039800F0D1
:103E200095F9054404E030205246179990476D1CDF
:103E30000099481E00900029F5DC08E002980299DC
:103E400052460078491C0291179990476D1CBBF1AE
:103E50000001ABF1010BF1DC5BE100F065F9054419
:103E6000761C307800287FF40DAE19B02846BDE8E6
:103E7000F08F0000092801003031323334353637F5
:103E800038396162636465660000000030313233A6
:103E90003435363738394142434445460000000046
:103EA000600700D4062708F1070020F00700F0E8BB
:103EB0000223804603F0004C5FEA0C0001D097A07B
:103EC00009E0200501D596A005E0E00701D095A006
:103ED00001E0AFF24C001390307823F000436528E6
:103EE0000CD006DC452809D046281DD047287FD1B4
:103EF0003BE0662818D067287AD136E00021112FE0
:103F000001DB112000E0781CCDE9000104A90CA818
:103F1000FFF7EEFCDDE90D010C9A4FF0000B07F105
:103F20000109109200914EE04FF000400097CDE95A
:103F3000011004A90CA8FFF7DBFCDDE90D020C9BC6
:103F40000F994FF0000B91461093009211B9791C14
:103F500000EB0109B7EB090003D4C0F1FF3B07F107
:103F60000109A9EB0700019042E0012F00DA0127C7
:103F70000021112F01DD112000E03846CDE90001BC
:103F800004A90CA8FFF7B4FCDDE90D010C9A00911F
:103F90004FF0000BB946109221070FD4009A4A4502
:103FA00003DA914601E0A9F10109B9F1010F05DD3C
:103FB000109AA9F10101515C3029F4D0B84202DA1B
:103FC00010F1040F03DA0121CDE9011010E00028FF
:103FD00003DC8344A9EB000102E0411C494500DDFC
:103FE0008946A0EB0B00401C01904FF0004002906E
:103FF000200705D40198484502DB4FF0FF300190BF
:1040000000208DF84B0002980DF14B07B0F1004FE6
:1040100025D002200C902B200D90029800280CDA5D
:10402000404202902D200D9007E00A210298FCF7F3
:1040300066FB3031029007F8011D0C99481E0C9068
:104040000029F2DC02980028EFD1791E0D98087043
:10405000307800F0200040F0450007F8020D11A86C
:10406000C01BC01D02901398007800B1012000EB26
:104070000901019801EBE071029801440398401A8C
:10408000401E0390E00306D453462146179A039836
:1040900000F05CF805441398007818B1524617995F
:1040A00090476D1CE00323D553462146179A039889
:1040B00000F04CF805441BE0BBF1000F07DB009853
:1040C000584504DD1098179910F80B0001E0179976
:1040D00030205246904701980BF1010B401E05F12C
:1040E0000105019004D12E205246179990476D1C6E
:1040F000B9F10001A9F10109DEDC05E017F8010BB7
:104100005246179990476D1C0299481E029000294B
:10411000F4DC53462146179A03989EE62D000000D2
:104120002B000000200000002DE9F041044600258E
:104130001E461746880404D405E039462020B047BF
:104140006D1C641EF9D52846BDE8F0812DE9F041CB
:10415000044600251E469046C80301D5302700E0DE
:104160002027880404D505E041463846B0476D1C39
:10417000641EF9D52846BDE8F0810A68531C0B601F
:10418000107070472DE9F84F04460D4621F00040AD
:1041900000917349814211DC7249884201DC06D1E9
:1041A0002CB120462946BDE8F84FFFF77EBB6E488C
:1041B000002DCCBF6D496E49BDE8F88F6D49814235
:1041C00011DD6D498142D8BF4FF0FF366DDD2046CD
:1041D0002946FFF7F1FA042808BFFFF76BFB2046DA
:1041E0002946BDE8F88F6549654F25F000458142B5
:1041F00033DD6449814219DD002632464FF08043A9
:1042000020462946FCF77AF880468A460122204655
:104210002946FCF7FBF900223B46FCF710F9424621
:104220005346FCF784F904460D463EE00126002281
:10423000BA463B4620462946FCF760F880460F46C2
:104240000022534620462946FCF7F9F842463B46F1
:10425000FCF76DF904460D4627E04B4981421BDD12
:10426000DFF828A102260022534620462946FCF703
:10427000ECF800223B46FCF741F880460F4600224E
:10428000534620462946FCF7DAF842463B46FCF7FF
:104290004EF904460D4608E0032622462B46002030
:1042A0003B49FCF744F904460D4622462B4610468E
:1042B0001946FCF7CAF88B46824602460B46FCF7C5
:1042C000C4F807460246334888460B460621784420
:1042D000FFF796FA52465B46FCF7B7F882462E483F
:1042E0008B463A46434605217844FFF789FA3A4619
:1042F0004346FCF7AAF802460B46002E50465946A4
:104300000CDAFBF7FBFF22462B46FCF79EF801B0C8
:1043100022462B46BDE8F04FFCF794B8FBF7EEFFC2
:1043200022462B46FCF791F81C4A7A4402EBC6035E
:10433000D3E90023FCF783F822462B46FCF77FF8ED
:10434000174A7A4402EBC603D3E90023FCF77AF854
:10435000009A002AB8BF81F00041BDE8F88F000044
:10436000000010440000F07F182D4454FB21F93F59
:10437000FB21F9BF0000DC3F0000203E0000F33FBE
:104380000000F03F0000E63F008003400000F83FDF
:104390000000F0BF4E1700000C170000AA16000026
:1043A000721600002DE9F04D9446CCF1000423F084
:1043B00000464CEA0404594F46EAD4749A468846AB
:1043C00021F00042BC4206D8454240EA050442EAD8
:1043D000D474BC4204D9BDE8F04D6246FFF768BA18
:1043E000AAF14055A5F17F6555EA0C040BD00224D3
:1043F00004EAAA744A4DDFF82CE144EAD87452EA80
:10440000000B04D00CE0BDE8F04DFFF7BBBE002C64
:1044100014BF012CBDE8F08D022C30D0032C32D01B
:1044200056EA0C0B0AD0BE4220D1BA4209D126F07E
:10443000804622F080423346114617E000291ADBFD
:1044400025E0DFF8E4B0FB44002C04BFDBE9000109
:10445000BDE8F08D012C02BFDBE9000181F00041D5
:10446000BDE8F08D022C0AD0032C0CD0BA4212D138
:10447000B8F1000F0BDA2A482C49BDE8F08D284628
:104480002B49BDE8F08D28467146BDE8F08D2448E3
:104490002849BDE8F08D921B12153C2AC4BF204F5D
:1044A000244E10DCBAF1000FBEBF12F13C0F002702
:1044B0003E4608DB6246FCF73AF821F00041FFF780
:1044C00061FE07460E4694B1012C08BF86F00046F7
:1044D0000DD0194A194B022C3846314615D0FBF73E
:1044E000AEFF2A46BDE8F04D114BFBF7A8BF0022F6
:1044F000134638463146FCF717FA04BF0220FFF78F
:10450000F1F938463146BDE8F08DFBF798FF2A46B1
:10451000BDE8F04D064BFBF795BF00000000F07FB3
:10452000182D4454FB2109C006160000FB21F9BFD9
:10453000FB210940FB21F93F075C143326A6A13C6F
:10454000A8B0FCF775FFFEF7F9FEFEF749FBFEF792
:10455000CDFCFEF795FCFEF751FCFEF71BFCFEF7C9
:10456000C1FBFEF7DFFBFEF783FA3C213248FDF783
:1045700053FB3C213148FDF74FFB00213048FDF74C
:10458000BBFE04212E48FDF7B7FE0C212D48FDF798
:10459000C1FC2C480068C16841F00101C1602A4B90
:1045A0002A4A2B49684600F075F9684600F0C1FCBC
:1045B0000021684600F0CDFC2649684600F023F94A
:1045C000254C00BFFEF790FDA0880028FAD11420EA
:1045D000A080684600F056F820A31E2200216846FD
:1045E00000F0E8F81F480068FCF75AF802460B464E
:1045F0001DA127A8FFF7CCF827AB1E223221684661
:1046000000F0D8F81AA332220021684600F0D2F850
:104610001948238819A1026825A8FFF7B9F83222A2
:1046200025AB1146684600F0C5F8684600F0E2F890
:10463000FEF732FDC6E7000010060020A0060020AD
:1046400058060020C80500205D530008C94F000827
:1046500080580008D453000868050020416E676C3C
:10466000653A00004800002025352E316600000024
:1046700053746167653A00009000002025642C2087
:104680002564000001680A7C90F83810406B5143A3
:10469000C900FBF760BD2DE9F041044690F87000B9
:1046A0001F4615460E4630B1012809D002280CD00D
:1046B000032815D10FE0E16D20468847284408E023
:1046C000E16D20468847301A09E0E16D20468847B1
:1046D000281A85B204E0E16D20468847304486B24E
:1046E0002846A4F86460A4F86600394600252046F0
:1046F00000F0C6FA010003D0204600F0F1F985B2BF
:104700002846BDE8F08100003FB581B0044690F82E
:104710008C00089900283AD0BDF81000002836D047
:10472000012811D9022902D0032907D00CE0BDF8D5
:104730000820101A401CADF8080005E0BDF80C2058
:10474000101A401CADF80C0011F0010521D0B4F88E
:104750004810BDF80800814219D8B4F84A108142C7
:1047600015D9B4F84E30B4F84C2004A90DF10C0062
:1047700000F028F900280AD00095206BBDF8103011
:10478000BDF80C208568BDF808102046A84705B084
:1047900030BDB4F84C10BDF80C008142F7D8B4F825
:1047A0004E108142F3D9B4F84A30B4F8482004A935
:1047B00002A8DDE730B4024C446030BC00F02FB9F1
:1047C000B94F000870B50D461E460446B0F84E10AD
:1047D000B0F84C00049B00F0B0FA002809D0B4F8FF
:1047E0004A10B4F8480033462A46BDE8704000F04D
:1047F000A4BA70BD10B5044600F02FFB2046BDE8FA
:10480000104000F09EBB10B50446806D884209D070
:1048100004F17400A16500F0EBFA2046BDE81040F9
:1048200000F054B810BD00000149C1657047000098
:10483000954A00080021A0F85010A0F854104FF637
:10484000FF71A0F85210A0F85610016B4968084794
:1048500070B5044600250498A565E362616384F899
:10486000382084F8395084F86D5084F89150012133
:1048700084F8921084F893102063016820468847DA
:104880002046FFF7D7FF2046FFF7CEFF84F8705091
:1048900070BD00007CB50C46009313460546084ADF
:1048A000084900F05EFB01A800F09CFA0146064BA7
:1048B00000949DF804202846FFF7CAFF7CBD000045
:1048C000D150000849520008554D000810B5816DBF
:1048D00000291AD090F9813080F88E3090F982202A
:1048E00080F88F2090F88D1000290ED001290DD06E
:1048F00090F97E4090F980100C449C4201DD80F8D4
:104900008E408A4201DD80F88F1010BD90F983102F
:104910008B4201DA80F88E1090F98410F1E72BB108
:10492000012B05D0022B06D0104402E0084400E021
:10493000801A80B27047401AFBE72BB1012B05D0DB
:10494000022B06D0401A02E0104400E0084480B276
:104950007047801AFBE738B50446B0F8560000905F
:10496000B4F85230B4F85420B4F850102046FFF791
:1049700029FF18B3012084F88C00B4F84810B4F86B
:104980005000814201D2A4F84800B4F84A10B4F8AB
:104990005200814201D9A4F84A00B4F84C10B4F88E
:1049A0005400814201D2A4F84C00B4F84E10B4F87F
:1049B0005600814201D9A4F84E0038BD002084F889
:1049C0008C0038BD30B504880D882544ADB2AC42AA
:1049D00005D99C4202D25D1EADB200E014469C4255
:1049E00001D2954201D8002030BD944200D2144635
:1049F0009D4200D91D460480281B0880012030BD3F
:104A000038B5C58F049C0094521BC46A92B2A0476B
:104A100038BD38B5049C0094FFF7F2FF38BD2DE98E
:104A2000F0471C4691468846064600F0CFFC00251C
:104A30004FF6FF7772682178304690470346B842B8
:104A400025D0641CA3F57F40FE38F3D04A4641468A
:104A50003046FFF720FE96F8701031B1012907D0DB
:104A6000022908D003290FD10AE008EB000104E075
:104A700009EB000106E0A8EB00011FFA81F803E052
:104A8000A9EB00011FFA81F9284485B2D2E7284634
:104A9000BDE8F0870020704710B50C4600F006F81E
:104AA0000122641EA240801A40B210BD30B50568D4
:104AB000047B2A78E2406318DBB2082B09D36D1C13
:104AC00005602D78C4F10804A5401543083BEAB2FF
:104AD000DBB201248C40641E14400373204630BDB9
:104AE0002DE9F843054600F1600400F00CF915F9D2
:104AF0006B6F2046E97BFFF7CFFF8146297C20467C
:104B0000FFF7CAFF0746697C20466B3DFFF7C4FFED
:104B1000804694F90A00002857DDF019404247B258
:104B2000237CA0883A464946FFF7F9FEA080237C03
:104B30003A46E0884946FFF700FFE080A188277CDD
:104B400002460B4637B1012F0AD0022F40D0032F67
:104B50000FD146E094F90A7030443B449BB207E021
:104B6000891B491C94F90A705B1C89B29BB23844BA
:104B700080B200902846FFF725FE30B30020207257
:104B800084F8090095F876102046FFF78FFF8146DC
:104B900095F877102046FFF789FF0746002249461F
:104BA000284600F027F801223946284600F022F86E
:104BB00001212046FFF77AFF0028EFD194F9090080
:104BC000B042DFDBA07B85F892004046BDE8F88369
:104BD00094F90A705B1CC91B491C89B29BB2921BD9
:104BE00004E094F90A7033449BB2D21B521C92B277
:104BF000401CBDE72DE9F74F84B00D46049C94F8A6
:104C0000687094F869806034A07AC01BC6B20196BF
:104C1000B54200D201954FFA88F279B2A088B4F873
:104C200006B0237C92468946FFF779FE0290237CEA
:104C3000524649465846FFF780FE0246069808B19C
:104C4000A17B02E0607B50B9E17B049880F8921070
:104C5000207C0090DDE901310498FFF755FDB54255
:104C600007D3A81BC5B208F10100002700F0FF0818
:104C7000CAE77819207284F8098007B0BDE8F08F80
:104C800070B50D460146806D1730FF2D10D8612D8F
:104C900002D3B1F8881003E0412D02D3B1F8861099
:104CA0000844417819B30278AA42F9D1801C70BD3A
:104CB000B1F88A100C1826460021304600F019F889
:104CC00004440221304600F014F8361DA842F3D304
:104CD0004FF6FF72207802EA00216078084306D080
:104CE000A84201D1E01C70BDA0780444F2E7002086
:104CF00070BD08444FF6FF720178407802EA012146
:104D0000084480B2704730B5054600F16004016682
:104D10000020207315F8781F2046FFF7C7FEA07209
:104D200069782046FFF7C2FEE072A87EA07310B13A
:104D30000020E07330BD0120FBE78A4205D28342A8
:104D400001D89A4203D9012070478342F9D8002044
:104D500070470000F0B502F007060124B4400025BA
:104D600090F892E0E7B2DDF814C02C46BEF1010FD6
:104D700001D83D4600D03C46076822F00702BCF14E
:104D8000000F3F7C07FB02F7BAB2476B3A4411446D
:104D900009D108785B1E284360401B0401F8010B11
:104DA0001B0CF6D1F0BD0A78761C2A436240A3F1B1
:104DB00001030A7016F007069BB206D06A06150EAC
:104DC0006206140E002BEED1F0BD428F114490F814
:104DD0009220012A03D800BF4FF00105F2D04FF016
:104DE0000104EFE7082101700048704768010020C6
:104DF00070B5054608782870487868708878A8707B
:104E0000C878E870087928714879687188790C4603
:104E1000A871E079E871207A2872607A6872A07AC5
:104E2000A872E07AE872207B2873607B6873A07BAD
:104E3000A873E07BE873207C287411212046FFF7DB
:104E400058FF688213212046FFF753FFA8821521DF
:104E50002046FFF74EFFE88270BD2DE9F843064675
:104E600090F8387090F83950006800244FF6FF78B9
:104E700090F81190316830462A460B7C716B04FB28
:104E800003FC1FFA8CFC08EACC0C61440091002161
:104E900000F040F8641C6D1CE4B2EDB2BC4201D2DB
:104EA0004D45E7D3BDE8F883F0B590F838204FF6CC
:104EB000FF75036805EAC2018187197C05EAC10113
:104EC000418790F8394005EAC401C1875E7CA71884
:104ED000B74201D9321B92B205EAC20220F8401F44
:104EE00011444180998A8180D98AC180F0BDFFF741
:104EF000DBBF0021A0F84810B0F84410A0F84A1019
:104F0000B0F84010A0F84C10B0F84210A0F84E10C5
:104F1000FFF721BD1CB58DF805108DF80620049C07
:104F20008DF804300094012284686B460F21A0475D
:104F30001CBD30B484680023A44630BC1A460A2144
:104F4000604730B484680023A44630BC1A46102160
:104F5000604730B484680023A4460A4630BC0B2165
:104F600060472DE9F04115460E460446069F00F0C5
:104F700009F86761A660C4E903532046BDE8F04123
:104F800000F012B8002140F8081B064A0260426097
:104F90008260C260C17681770161FF21017780F86C
:104FA000201070474D53000830B484680023A44695
:104FB00030BC1A4609216047080001D00A2801D1F7
:104FC0004FF6FF70704700002DE9F0470446006877
:104FD00090461829027B02F00109C9F1010A50D05C
:104FE00004DC14293CD0172904D106E0192956D035
:104FF000202940D00020BDE8F0871D462CE000BFEE
:1050000015F8017BA8F1010000F0FF080026380622
:1050100001D5012200E000224121204600F098F94C
:105020007806070E52464021204600F091F920688C
:105030002C218279204600F08BF94A4640212046F7
:1050400000F086F920682C21C279204600F080F912
:10505000761CF6B2082EDAD3B8F1000FD0D11CE0DE
:1050600042784921204600F073F920684021007BF6
:1050700000F0010201E042464A21204600F068F9B2
:105080000BE002784921204600F062F920680023F5
:10509000656982782C212046A8470120ABE7C278B9
:1050A000002365692C212046A847206849214278C1
:1050B000E3E713B50122046901AB1721A0471CBD2A
:1050C00030B404690023A4460A4630BC202160475E
:1050D0002DE9F0410546A1F114001F4616460C4685
:1050E00006281CD2DFE800F01203030E1212002182
:1050F0002846FFF7E5FF31462846FFF7DAFF012093
:10510000BDE8F08101212846FFF7DAFF3B46324631
:1051100021462846D5F810C0BDE8F0416047002080
:10512000EEE730B4C4680023A44630BC1A46192107
:10513000604730B4C4680023A4460A4630BC162138
:10514000604730B4C4680023A4460A4630BC152129
:10515000604730B4C4681346A4460A4630BC1721E1
:1051600060470000F8B50C464FEA000514F8011B33
:10517000182924D00EDC152919D0162917D0172983
:1051800023D120788DF800006A4601212846FFF7D8
:10519000E0FF0AE0192912D0FE2916D122788DF8F5
:1051A00000202921284600F0D3F8641CDEE722788D
:1051B0008DF80020EE6800232846B047F5E700236D
:1051C000EE681A462846B047D0E7F8BD30B4C46848
:1051D0000023A44630BC1A461821604770B500234E
:1051E000456904461A462821A8470023E5681A465F
:1051F00014212046A84701224B21204600F0A8F8A0
:10520000206829210279204600F0A2F800224B21D3
:10521000204600F09DF8206829210279204600F000
:1052200097F801224B21204600F092F820682921AE
:1052300042792046BDE8704000F08AB80160897C60
:1052400080F822107047000070B50C46054600F04B
:1052500019F890B9092C0BD00A2C01D0002070BD90
:105260002846FFF7BBFF06492846FFF77BFF04E00F
:1052700003492846CC31FFF7E1FF012070BD000053
:10528000A45800082DE9F0411E46144605460B2996
:1052900008D00D290ED00E291ED00F2927D00020AE
:1052A000BDE8F0811AB12849FFF75CFF4AE02649C2
:1052B000491FF9E74AB124490C31FFF753FF286829
:1052C00090F8130085F822003CE01F49491DFFF7C4
:1052D00049FF2868807CF5E7FFF778FF81212846A1
:1052E000FFF72FFF21462846FFF723FF27E0FFF7B0
:1052F0006DFF707995F8221001EBC000C7B2402114
:105300002846FFF71EFF102040EA17112846FFF736
:1053100018FF07F00F012846FFF70BFFB07940F0A8
:10532000B0012846FFF705FF30793268C006010E4C
:105330002846FFF70EFF641E14F0FF04F4D1284640
:10534000FFF7EFFE0120ABE79158000800207047FF
:1053500030B444690023A44630BC604710B5194BF3
:105360001046412916D008DC282910D0292925D03B
:105370002B2921D0402908D111E04FF400544929AC
:1053800012D04A2910D04B290FD0002010BDFDF7B4
:105390003BFE15E04FF4804103E0012208E04FF4AA
:1053A0000041002AF9D103E0074B02B10122214656
:1053B0001846FBF76EFD03E000BF01E0FBF762FC5F
:1053C000012010BD000C014000100140002180F8B8
:1053D000261070475F0203020304010204060C005A
:1053E000FE07FE08FF017C0317048C2007E6F8F98E
:1053F0004F00210AE6F8C9697730A700220CE6F8C9
:10540000E1244BB224E71300230FE6F819936890C8
:10541000922C890629C909240EE6F809E194741C26
:10542000934E630E01250DE6F8895222859D94481E
:105430008701260EE6F8A961922561A52953721805
:105440002709E6F809699D6F00280DE6F829611A19
:10545000A6E534CE1100290CE6F8E16A9C16D3309B
:10546000C7002A0EE6F8C959521AC329A9E5140043
:105470002B0AE6F8596B8396E60C2C09E6F8F941FD
:10548000D4740C2D09E6F87919746E002E09E6F82B
:10549000F941D429002F0BE6F859C234AC86390DF6
:1054A000300AE6F8C95AD4BFE9043109E6F8C9A1BF
:1054B000DA7127320CE6F8A95396868D830E0333F2
:1054C0000DE6F889831A867292453B01340DE6F8A1
:1054D00019422D894A8398E604350DE6F8898392AE
:1054E0000E719A64D14E360DE6F8C95A980E51964F
:1054F00064D14E370CE6F889831AA6615AA70038A2
:105500000EE6F8A9539664D1942559B413390EE6E2
:10551000F8A9539664D19086994E013A0BE6F8B9F2
:10552000893A26EA14003B0BE6F8B9893A266A3A2A
:10553000063C09E6F899C3729D0C3D0BE6F8390D5F
:105540003A30E88C003E09E6F819E3629D053F0C0D
:10555000E6F8A95316567330A700400DE6F8A95394
:1055600096244B9725DE094110E6F8A9539664C9A5
:10557000A064499664390C420DE6F8894316356DEE
:1055800051CB9013430BE6F8A95396A46DD14E442A
:105590000BE6F8894316F52F434E450EE6F889834E
:1055A00092A64394A6830E03460DE6F8898392A63D
:1055B0004394D66900470DE6F8A95396A425258B98
:1055C00076024811E6F889599225593228599225D0
:1055D000590E034909E6F8A963DA71274A0BE6F880
:1055E000C963DA54D329004B0FE6F88959125532B2
:1055F00031C9A25A0E034C0AE6F88969AF830E033B
:105600004D0FE6F8895962E99664499664390C4E63
:1056100010E6F88959922552D249C9922C87014F38
:105620000FE6F8A95396644996644916ED04500EA6
:10563000E6F889439425593244699D06510FE6F8EE
:10564000A9539664499674CA941C065210E6F889C8
:105650004394255932444916D57218530DE6F8A9DA
:105660005396C47392453B01540AE6F8898396F633
:105670004E015510E6F889599225599225599245BF
:105680003B015610E6F8895992255992454996846E
:105690003905570FE6F8895992255992257D4A72A6
:1056A000025810E6F889599245495889B224CB61CD
:1056B00000590DE6F8895992454998B653005A0B9E
:1056C000E6F889831A761D74185B0AE6F8E12DED79
:1056D000EB8E005C0BE6F889711A57E31C065D0936
:1056E000E6F8E1B5DF76045E0BE6F809611265398C
:1056F0005F005F08E6F8F9B741016008E6F8E17677
:105700003E01610DE6F8B9CDD19064D190C300623D
:105710000FE6F889693A445992255932E404630B3B
:10572000E6F8B94D599266D14E6410E6F859D26840
:1057300048B2244BB268C86100650BE6F8B94D5910
:105740003244F14E660BE6F8C95A541CD33A096745
:105750000EE6F8B94D5992255934A4D1046810E6E3
:10576000F889693A445992255992E53000690AE668
:10577000F8C939A636EE046A0BE6F859724CED54B6
:1057800093006B0EE6F889692D89A22DAAE53000F9
:105790006C09E6F8A96A8F3B016D0BE6F8392951CF
:1057A000D2FF0E036E0EE6F8392592946449966492
:1057B000390C6F0CE6F8B94D59922559B413700F96
:1057C000E6F8390D51966449960C519A02710EE62D
:1057D000F8B90D49966449160D6905720CE6F83959
:1057E000259294A4751A00730BE6F8B90D493C276D
:1057F000434E740CE6F8C969366869598701750E1D
:10580000E6F839654996644964C96100760EE6F8A0
:1058100039654996645112E61400770CE6F839654B
:105820004996F429C909780DE6F83965511256A24E
:105830002C8701790DE6F839654996645112B60254
:105840007A0BE6F8390D62E3A0C3007B0CE6F82979
:10585000615A8CD3728E007C09E6F809697F870053
:105860007D0BE6F8E16A394C8B39067E0AE6F8B919
:105870004549A79C1500000004FFFF000000000040
:10588000EF4E0008F34E0008134A00081815AF1930
:10589000FF1815AE19FF1815A115C819FF1815A086
:1058A00015C019FF1815AE15D5168015A8163F1589
:1058B000D316001540158D16141520160015A115C8
:1058C000C815DA1612158116CF15D916F115DB1683
:1058D00040152E15A415A619FF1815AE15D516805E
:1058E00015A8163F15D316001540158D1614152052
:1058F000160015A115C815DA1612158116EF15D95F
:1059000016A115DB1600152E15A415A619FF1815DE
:10591000AE15D5168015A8163F15D31600154015DF
:105920008D16141520160015A115C815DA160215C6
:105930008116CF15D916F115DB1640152E15A415B5
:10594000A619FF1815AE15A415D5165015A8163FA3
:1059500015D31600154015AD168B15D9162215DB7B
:1059600016351532158116FF15A615DA161219FF10
:105970000001140A6464323200127A00000428968E
:1059800010080000800040000001140A64643232F4
:1059900000093D0003042896100802028000400020
:1059A00000000000000000000102030406070809CF
:1059B00000000000010203044FBB610567ACDD3F3E
:1059C000182D4454FB21E93F9BF681D20B73EF3F26
:1059D000182D4454FB21F93FE2652F227F2B7A3C9E
:1059E000075C143326A6813CBDCBF07A8807703C57
:1059F000075C143326A6913CC4EB98999999C9BFCA
:105A0000711623FEC671BCBF6D9A74AFF2B0B3BFFE
:105A10009AFDDE522DDEADBF2F6C6A2C44B4A2BFBE
:105A20000D5555555555D53FFF8300922449C23F2A
:105A30006E204CC5CD45B73F513DD0A0660DB13F5E
:105A4000EB0D76244B7BA93F11DA22E33AAD903F70
:105A50000000000000000000785A0008000000204C
:105A600058010000AC090008B45A00085801002091
:105A7000D0090000D4380008012485CDCC2C400585
:105A8000600AD7A33BE3A00F23B80BB21EE3102795
:105A90002370170D16E2FFFFFF202940320A292448
:105AA0000A192820291C2924E92001202A015481CF
:045AB0005324F40087
:04000005080000ED02
:00000001FF
