:020000040800F2
:10000000F80A0020050100084931000821270008EE
:10001000A9300008250B0008B93B000800000000CB
:10002000000000000000000000000000BD320008D9
:10003000310C000800000000D9310008D13500085B
:100040001F0100081F0100081F0100081F01000810
:100050001F0100081F0100081F0100081F01000800
:100060001F0100081F0100081F0100081F010008F0
:100070001F0100081F0100081F0100081F010008E0
:100080001F0100081F0100081F0100081F010008D0
:100090001F0100081F0100081F0100081F010008C0
:1000A0001F010008BD3600081F010008B136000816
:1000B0001F0100081F0100081F0100081F010008A0
:1000C0001F0100081F0100081F0100081F01000890
:1000D0001F010008AD3B00081F0100081F010008B8
:1000E0001F0100081F0100081F010008DFF810D0E1
:1000F00000F020FC0048004739420008AFF30080C0
:10010000F80A00200648804706480047FEE7FEE759
:10011000FEE7FEE7FEE7FEE7FEE7FEE7FEE7FEE7B7
:10012000AF360008ED000008202A04DB203A21FA4F
:1001300002F00021704721FA02F3D040C2F1200200
:100140009140084319467047D2B201E000F8012BF4
:10015000491EFBD270470022F6E710B513460A4647
:1001600004461946FFF7F0FF204610BDF0B480EAC0
:100170000102D40F4200B2EB410F02D20246084600
:1001800011464A0042D0C30DDDB2C1F3C752AD1AC9
:10019000202D35DAC1F3160141F4000204B15242B8
:1001A000C5F1200602FA06F12A411044B3EBD05FF4
:1001B00023D0C4B1012DA0EBC35009DCF0BC4FF03B
:1001C000004202EAC352DBB200F5000000F00EBBB1
:1001D000400000F1807000EBC350A0F1807040EA55
:1001E000D170490009E0490841EAC071A0EBC35051
:1001F00000F50000400800EBC350F0BC00F0EDBA81
:100200006142012202EB4101001BF6E7F0BC70479E
:1002100081F00041AAE780F00040A7E780EA0102F0
:1002200010B502F00043400022D04A001FD0010E5A
:1002300001EB1261C0F35600C2F3560240F4000015
:1002400042F40002A0FB022000047F39140400D015
:10025000401C50EA124001D44000491EC2B20C06B4
:1002600004EBD010401C4008802A02D003E000209C
:1002700010BD20F00100002900DA0020184310BD55
:1002800030B480EA010202F0004530F0004221F073
:10029000004013D090B1C30DD40DC2F31601C0F3CA
:1002A0001600E41A41F4000140F400027D3491424A
:1002B00001D3641C00E04900002C02DA30BC0020AD
:1002C00070474FF400000023914201D3891A034381
:1002D00040084FEA4101F7D151B1914202D14FF0AC
:1002E000004105E002D24FF0010101E06FF0010191
:1002F00003EBC450284430BC00F06FBA2DE9FE4F28
:10030000804681EA0300C00F0C46009021F00041B6
:1003100023F00045B8EB0200A94105D24046214632
:1003200090461C460B46024623F00040104347D03F
:10033000270DC7F30A00C3F30A510290401A019037
:1003400040286BDAC3F3130040F4801B00989246F8
:1003500020B10023D2EB030A63EB0B0B0198594643
:10036000C0F14002504600F017FA06460D465046CE
:100370005946019A00F01FFA10EB08006141002471
:1003800087EA115284EAE7731A4340D0009A62B3B5
:10039000019A012A4FEA075215DC001B61EB0201AA
:1003A0004FF0004202EA0752CDE90042001C41F53D
:1003B000801132462B4600F056FA03B0BDE8F08FAC
:1003C00040462146F9E7001B61EB0201001C41F5A4
:1003D000801300185B412018A2F5001747EB0301BA
:1003E00040EAD570B6196D4111E06D084FEA360646
:1003F00045EAC0754FEA0752001B61EB0201001C81
:1004000041F5801149084FEA300000195141324648
:100410002B4603B0BDE8F04F00F016BA0098012259
:1004200040000023D0EB020263EBE073009821460A
:100430004FEAE074B8EB000061EB0401E9E783F0F8
:1004400000435BE781F0004158E72DE9FE4F81EA68
:10045000030404F0004421F0004100944FF0000B2D
:1004600023F0004350EA01045ED052EA03045BD05B
:10047000C3F30A54C1F30A552C44A4F2F334019493
:10048000A0FB0254C1F3130141F48011C3F3130321
:1004900043F4801301FB024400FB034E840A970AD5
:1004A00044EA815447EA8357A4FB076802958D0A02
:1004B00005FB07854FEA932C04FB0C542705029D8E
:1004C0004FEA065847EA1637B5EB08056EEB070CFE
:1004D000870E920E47EA811742EA8312A7FB0201B8
:1004E000B6EB0B0164EB00042B0D43EA0C335E18F2
:1004F00044EB1C50DA465146E7FB0201C5F31304F6
:100500004FEA0B3343EA14534FEA0432019C43EAA7
:100510000603A4F10C040294009CCDE900B400F0A1
:10052000A2F903B0BDE8F08F00200146F9E72DE9FC
:10053000F04D81EA030404F0004B21F0004514461D
:100540004FF0000A23F0004150EA050220D054EA9F
:1005500001021DD0C5F30A570246C5F31303C1F3C8
:100560001300C1F30A5640F4801543F48013A7EB3F
:100570000608101BD64608F2FD3873EB050002D3BF
:1005800008F1010801E092185B41B8F1000F03DAAD
:1005900000200146BDE8F08D00204FF48011064692
:1005A00084460EE0171B73EB050705D3121B63EBA4
:1005B000050306434CEA010C49084FEA3000921843
:1005C0005B4150EA0107EDD152EA030012D082EA02
:1005D000040083EA0501084305D0101BAB4106D295
:1005E0000122002306E000224FF0004302E06FF0FA
:1005F000010253101AEB06004CEB085110EB0A00F5
:1006000041EB0B01BDE8F04D00F01EB970B521F0D3
:10061000004303430CD0C1F30A550024D5EB040575
:1006200064EB0403D617AD1AB34102DB0020014688
:1006300070BD201841EB025170BDC10F80EAE0701F
:100640000844CA079623002100F0D0B80EB5C10FA8
:1006500080EAE0700844CA07002140F233438DE885
:100660000E000A460B4600F0FEF803B000BD00F095
:10067000004220F00040C10DC0F3160040F400001D
:100680007F2901DA00207047962903DCC1F1960129
:10069000C84001E096398840002AF4D040427047B3
:1006A00070B5C1F30A5201F000450024C1F31301F3
:1006B00040F2FF3341F480119A4201DA002070BD0C
:1006C00040F233439A42A2F2334203DC5242FFF734
:1006D0002BFD00E090402C43F1D0404270BD00F073
:1006E000004230F000400AD0C10D01F56071C0F346
:1006F000160042EA0151C20840071143704700202A
:100700000146704730B5041E71F1000404DB4FF060
:100710000044404264EB0101141E73F1000405DB48
:100720001C464FF00043524263EB0403994208BF5A
:10073000904230BD01F0004330B421F0004150EA56
:10074000010206D00A0DA2F56072C1F31301002A5E
:1007500002DC30BC00207047440F44EAC104C100F1
:10076000E01830BC00EBC25000F037B830B50B4693
:10077000014600202022012409E021FA02F59D42D1
:1007800005D303FA02F5491B04FA02F52844151EA5
:10079000A2F10102F1DC30BD202A04DB203A00FA8C
:1007A00002F1002070479140C2F1200320FA03F3C8
:1007B000194390407047202A06DBCB17203A41FAB4
:1007C00002F043EAE07306E041FA02F3D040C2F1DE
:1007D000200291400843194670470029A8BF70477E
:1007E000401C490008BF20F00100704710B4B0FA67
:1007F00080FC00FA0CF050EA010404BF10BC704702
:1008000049B1CCF1200421FA04F411FA0CF118BF1B
:10081000012121430843A3EB0C01CB1D4FEA0061EA
:100820004FEA102042BF002010BC704700EBC350BD
:1008300010440029A4BF10BC7047401C490008BFE9
:1008400020F0010010BC704710B5141E73F10004B5
:1008500008DA401C41F1000192185B411A4301D1B2
:1008600020F0010010BD2DE9F04D92469B4611B1DC
:10087000B1FA81F202E0B0FA80F220329046FFF73E
:100880008BFF04460F4640EA0A0041EA0B0153463B
:100890005A46084313D0114653EA010019D0C8F153
:1008A00040025046FFF740FC05460E46504659466A
:1008B0004246FFF771FF084305D0012004E02046BF
:1008C0003946BDE8F08D0020054346EAE0762C432A
:1008D00037430A986305E40AA0EB08000022FD0AEA
:1008E00044EA47540A3002D500200146E9E70105F1
:1008F00010196941DDE9084500196941BDE8F04D6D
:10090000A2E7000030B5041E71F1000404DB4FF0D3
:100910000044404264EB0101141E73F1000405DB46
:100920001C464FF00043524263EB04038B4208BF66
:10093000824230BD064C074D06E0E06840F00103FE
:1009400094E8070098471034AC42F6D3FFF7D2FB87
:10095000A8560008C85600082DE9F0412A4CB4F901
:100960000000FFF773FE6FF00D052A46FFF74EFEFD
:10097000FFF7E0FEA062B4F90200FFF767FE2A4627
:10098000FFF744FEFFF7D6FE0646E062B4F9040026
:10099000FFF75CFE2A46FFF739FEFFF7CBFE206328
:1009A000FFF79DFE07460D463046FFF798FE3A4694
:1009B0002B4603F073FB0022144BFFF746FD144A4D
:1009C000144BFFF7B4FDFFF7B5FE05466063B4F9BD
:1009D0000600FFF73BFE4FF066320F4BFFF7A7FD17
:1009E000FFF7A8FEA06301462846626A00F0FCF803
:1009F0002169FFF70DFC0949E063626B0A60A26B95
:100A0000C1E90120BDE8F0810800002000806640B7
:100A10001F85EB51B81E0940666630400401002076
:100A200070B50B4C084E0949A06BFFF7F7FB054664
:100A3000E06B314680F00040FFF7F0FB2946FFF7FE
:100A4000E7FB606570BD0000000082423333134055
:100A5000080000204FF47A6290FBF2F302FB1300CF
:100A60004FF4967110F5967F01DB884243DD40F22A
:100A7000EE2240F2E241904204DB884202DC4FF475
:100A80007A70704740F2D66240F6CA01904204DBA9
:100A9000884202DC4FF4FA607047184940F6B242CF
:100AA0004B42984204DB904202DC40F6B83070477B
:100AB00040F6B242D04204DB884202DC0F48FA38EA
:100AC000704740F6CA01C84205DB40F2D661C84211
:100AD00001DC0B48704740F2E241C84205DB40F2BE
:100AE000EE21C84201DC0748704740F67461884235
:100AF00001DAC842F8DC00207047000042F5FFFF31
:100B000030F8FFFF18FCFFFF054800210162416239
:100B100017218162C06908B100F08EB802F03CBDB7
:100B2000A0000020FEE700002DE9F0472548C1693C
:100B3000002939D02449254AD0E90B870968126871
:100B40000024511ACE1B25468146474509DA304616
:100B5000FFF773FD1E49FFF793FBFFF7C0FD044647
:100B60000D46474509DD3046FFF767FD1949FFF798
:100B700087FBFFF7B4FD04460D460022164B2046C6
:100B80002946FFF7BFFD11D80025C9F81C50D9F838
:100B900018004C46401CC9F8180002F057FC2562AA
:100BA0006562A562E5622563BDE8F0870B4A0C4BE0
:100BB00020462946FFF7A6FDF6D80A490022C9E9D2
:100BC0001221F1E7A00000202800002024000020CE
:100BD0000080EDC40080ED440000F03FCDCCCCCCD3
:100BE000CCCCEC3F0000D03F2DE9F04117460E4C35
:100BF00088460E4A0B4E014610466660FFF70EFB14
:100C0000054639464046FFF709FB2168FFF7AEFA73
:100C10003146FFF703FB2946FFF7A8FA2060BDE83D
:100C2000F081000048E17A3F0000002000D7A33C9B
:100C3000704772B6FEE7000010B5FFF775FF084871
:100C4000C06900280BD0012805D0022807D1BDE8D3
:100C5000104002F0CBBEBDE8104002F09FBE10BDB8
:100C6000A0000020064A10B5911E881E01F08AFFE0
:100C7000034ABDE81040921D911E881E01F09ABFE4
:100C80000C0000200E4810B50268506A002301B223
:100C90000C48016453620C4A1468626A12B25242F0
:100CA00042646362436E0B444366836E13448366FF
:100CB000C3691944C161016A1144016210BD000099
:100CC000DC050020080000206C06002010B590F81C
:100CD00021100024022903D00421816301243DE076
:100CE00001680A6822F00E020A6001680A6822F0B0
:100CF00001020A601A4A0168914201D1012121E0F2
:100D0000174A1432914201D110211BE0144A2832B3
:100D1000914201D1891515E0114A3C32914201D12D
:100D200089140FE00E4A5032914202D14FF48031C3
:100D300008E00B4A6432914202D14FF4801101E085
:100D40004FF08071064A083A5160012180F8211065
:100D5000002180F82010416B01B18847204610BD6A
:100D60000800024070B5044600F008F90546601C12
:100D700002D004480078044400F000F9401BA0426F
:100D8000FAD370BDF00000202DE9F84FDFF8B891DC
:100D9000002409F1040A0AF1040B23460F270BF182
:100DA000040EC9E00125A5402A40AA427DD1674E24
:100DB000D1F804C0ACEB0608B44532D014DCBCF169
:100DC000030F3AD009DCBCF1000F2AD0BCF1010FAF
:100DD0001CD0BCF1020F31D11DE0BCF1110F17D0B6
:100DE000BCF1120F2AD119E0B8F5881F19D006DC22
:100DF000B8F5803F15D0B8F5801F1FD111E0B8F5C8
:100E0000001F0ED0B8F5041F18D10AE0CB6815E01A
:100E1000CB681B1D12E0CB6808330FE0CB680C33A6
:100E20000CE08B682BB1012B4FF0080303D0456118
:100E300004E0042302E0056100E00023FF2A01D85A
:100E4000064601E000F104064FEA840501D9A5F148
:100E50002005D6F8008007FA05FC28EA0C0803FAFA
:100E600005F548EA0508C6F800804D68ED0062D532
:100E7000374DAE6946F00106AE61AD6924F0030658
:100E800005F001050095334D06EB050CDCF8085024
:100E9000A607360F07FA06F825EA0805DFF8B88036
:100EA000404503D14FF0000817E044E0DFF8AC8084
:100EB000404502D14FF001080FE0DFF8A480404523
:100EC00002D14FF0020808E0DFF89880404502D1D7
:100ED0004FF0030801E04FF0040808FA06F848EA6A
:100EE0000508CCF808804D68D9F80060ED034D4640
:100EF00001D5164300E096432E604D68DAF8006095
:100F0000AD03554601D5164300E096432E604D686B
:100F1000DBF80060ED025D4601D5164300E0964324
:100F20002E604D68DEF80060AD02754601D51643AF
:100F300000E096432E60641C0D682A46E5407FF46D
:100F400031AFBDE8F88F000000040140000011102F
:100F5000001002400000014000080140000C014068
:100F600000100140001401408068084000D00120BA
:100F700070470AB1016170470904FBE701488068C6
:100F800070470000F000002070B5040025D094F8F0
:100F90003D00002520B984F83C50204600F078FA46
:100FA000242084F83D002068016821F001010160DF
:100FB0002068016841F4004101602068016821F463
:100FC0000041016000F0CAFB4D4A6168914201D8BE
:100FD0004C4900E04C49884201D2012070BD4B4988
:100FE0002368B0FBF1F15E6826F03F060E435E60B9
:100FF0006368934206D94FF4967359434FF47A735A
:10100000B1FBF3F12368491C1E6A26F03F06314309
:1010100019626168914210D84900401EB0FBF1F29C
:10102000521CC2F30B02042A01D2042022E0B0FBBE
:10103000F1F0401CC0F30B001CE0A268F2B301EB1E
:10104000C10303EB0116431EB3FBF6F35B1C43F431
:1010500080431B0549D092B301EBC10202EB0111A1
:10106000401EB0FBF1F0401CC0F30B0040F4804088
:1010700040F400402168CA694CF6FF739A4310435C
:10108000C861D4E9071001432068026822F0C00259
:1010900011430160D4E9030101432068826848F2EA
:1010A000FF339A4311438160D4E905010843216865
:1010B000CA6822F0FF021043C86001E00EE016E0AB
:1010C0002068016841F0010101602564202084F856
:1010D0003D00256384F83E50002070BD01EB4106C1
:1010E000431EB3FBF6F35B1CB3E70120C2E701EB41
:1010F0004101401EB0FBF1F0401CC0F30B00B7E70C
:10110000A086010080841E0000093D0040420F00BF
:101110002DE9FF4F83B00025DDE910799A4693460B
:101120000446DDF848800095FFF728FF064694F84E
:101130003D0020287CD119230122854920460096B4
:1011400001F0FEFB0028F5D194F83C0001286FD097
:10115000012084F83C0020680168C90703D10168B8
:1011600041F0010101602068016821F40061016023
:10117000222084F83D00402084F83E002564676208
:10118000A4F82A90608D20857248E062CDE900863F
:1011900053465A462046049901F0DAFA00287DD1D8
:1011A000208DDFF8B491202768B1012814D00228DF
:1011B000206801681ED041F48061016020684169A7
:1011C00080690090B6E020684169816900910168FA
:1011D00041F400710160ADE02068016821F4806194
:1011E000016072B62068416981690091016841F42B
:1011F00000710AE041F40061016072B62068416943
:1012000081690091016821F48061016062B691E01A
:10121000032868D801280CD0022843464FF000026A
:101220004946204600960FD001F08AFBB0BB10E083
:101230008BE032464146204601F001FC70BB20683D
:101240000069616A08706CE001F07AFB30BB72B62D
:1012500034E02068016821F48061016072B6206882
:101260000069616A0870606A401C6062208D401EDF
:101270002085608D401E6085384846F2A8110068C0
:10128000B0FBF1F0C0EBC00000EB80000090401E0E
:10129000009008D020684069C04300E029E0400782
:1012A0000CD50098F3E744F8305F6773A5732069A5
:1012B00040F02000206162B625731AE020680168C2
:1012C00041F40071016020680069616A0870606A19
:1012D000401C6062218D491E2185618D491E6185FA
:1012E00062B621681BE032464146204601F0A7FB6A
:1012F00018B1012007B0BDE8F08F20680069616A6D
:101300000870606A401C6062218D491E2185618DD4
:10131000491E618521684A69D24352070AD4096986
:101320000170606A401C6062208D401E2085608DC7
:10133000401E6085208D00287FF46AAF84F83D70E0
:1013400084F83E5084F83C50D4E70220D2E70000F5
:10135000020010000000FFFF04000100FC0000205C
:101360002DE9FF4F83B09A46DDE911979346044675
:10137000DDF84080FFF702FE054694F83D00202886
:101380007FD11923012240492046009501F0D8FA67
:10139000002876D194F83C00012872D0012084F80E
:1013A0003C0020680168C90703D1016841F00101D0
:1013B00001602068016821F400610160212084F847
:1013C0003D00402084F83E0000262664C4F82480B6
:1013D000A4F82A90608D20852C48E062CDE9007544
:1013E00053465A462046049901F030FA70B930E06D
:1013F0002A463946204601F055FB58B1206C042896
:1014000004D12068016841F400710160012007B037
:10141000BDE8F08F606A216800780861606A401C4E
:101420006062218D491E89B22185628D521E6285BE
:1014300022685369DB435B070BD469B10078106104
:10144000606A401C6062208D401E2085608D401EB9
:101450006085208D0028CBD12A463946204601F0F0
:1014600049FA0028CAD154F83D0B016841F40071D3
:101470000160202004F81E09E67766770020C6E7A1
:10148000FFE70220C3E70000020010000000FFFF9A
:1014900010B586B00021009101910291039100687E
:1014A0001349884222D1134CA06940F00800A06182
:1014B000A069694600F0080004904FF44070009065
:1014C00012200190032003900B48FFF75DFC0B48AE
:1014D000416841F0E06141F002014160E06940F49F
:1014E0000010E061E06900F40010049006B010BD47
:1014F0000054004000100240000C01400000014078
:10150000024881680278114481607047F000002031
:10151000074810B5016841F010010160032000F098
:1015200075F8002000F006F800F024F8002010BD47
:101530000020024070B50D4D04464FF47A712878B2
:10154000B1FBF0F00A490968B1FBF0F000F0EDFAE8
:1015500048B9102C07D200222146501E00F036F860
:1015600000206C6070BD012070BD0000F000002004
:10157000FC0000200C4808B5816941F0010181613F
:10158000816901F001010091C16941F08051C1619F
:10159000C06900F0805000900448416821F0E0618B
:1015A00041F00071416008BD0010024000000140A0
:1015B000002809DB00F01F02012191404009800052
:1015C00000F1E020C0F8001170470000F0B40E4BAD
:1015D0001B680C46C3F30223C3F10705042D00D991
:1015E0000425191D072901D2002300E0DB1E012676
:1015F00006FA05F1491E214099409E40761E16408C
:101600003143F0BC02F002BB0CED00E0064900F0F3
:10161000070208684FF6FF03184040EA0220034A19
:1016200010430860704700000CED00E00000FA0570
:101630002DE9F0470F46050061D0434E306800F0B9
:101640000700B84209D2306820F007003843306004
:10165000306800F00700B84251D128683B4C810740
:1016600012D5400703D5606840F4E06060602878D8
:10167000000703D5606840F4605060606068A96846
:1016800020F0F000084360602878C00728D0686820
:10169000012810D02168022810D0890700292EDAED
:1016A000616821F0030101436160FFF767FC804638
:1016B00041F288390DE021688903EFE78901EDE700
:1016C000FFF75CFCA0EB0801494502D90320BDE807
:1016D000F0876068696800F00C00B0EB810FEFD113
:1016E000306800F00700B8420BD9306820F00700DE
:1016F00038433060306800F00700B84201D0012064
:10170000E5E72878400705D56068E96820F4E060DF
:10171000084360602878000706D56068296920F4CE
:10172000605040EAC100606000F038F86168084A23
:10173000C1F30311515CC8400649086006480068BF
:10174000FFF7F8FE0020C2E7002002400010024030
:10175000F0550008FC000020F40000200448054972
:1017600000684968044AC1F30221515CC8407047CF
:10177000FC00002000100240005600080448054903
:1017800000684968044AC1F3C221515CC8407047EF
:10179000FC000020001002400056000812A185B095
:1017A0000FC98DE80F0014A0144A00680490516816
:1017B000134801F00C03042B10D0082B0ED1C1F3F9
:1017C0008343C9031DF803000AD5516804AAC1F375
:1017D0004041515C0A4A5043B0FBF1F005B07047FC
:1017E00008494843FAE70000020304050607080910
:1017F0000A0B0C0D0E0F1010010200000010024029
:1018000000127A0000093D002DE9F84F040070D065
:101810002078C04DC00749D06868C0F38100012816
:1018200007D06868C0F38100022809D16868C00346
:1018300006D52868800339D560680028E7D035E0F0
:101840006068B0F5803F0BD010B1B0F5A02F11D07B
:10185000286820F480302860286820F4802002E086
:10186000286840F480302860606890B1FFF786FBFC
:1018700006460AE0286840F480202860F0E700BFB0
:10188000FFF77CFB801B642873D828688003F7D59A
:101890000CE0FFF773FB064605E000BFFFF76EFBA9
:1018A000801B6428F0D828688003F7D420789A4EEB
:1018B00080074FF001094FF0000839D5686810F033
:1018C0000C0F07D06868C0F38100022809D168684E
:1018D000C00306D42868800714D52069012808D1E0
:1018E00010E02069B0B1C6F80090FFF747FB07464B
:1018F00005E00AE1FFF742FBC01B0228C4D82868B4
:101900008007F7D52868616920F0F80040EAC10037
:1019100028600DE0C6F80080FFF730FB074604E0C2
:10192000FFF72CFBC01B022823D828688007F7D4B8
:10193000207800072CD57948A169D9B1C0F800906A
:10194000FFF71CFB074604E0FFF718FBC01B02284B
:101950000FD8686A8007F7D571484FF4FA510068CC
:10196000B0FBF1F0009000BF0098411E0091FAD248
:101970000EE080E0C0F80080FFF700FB074604E0BF
:10198000FFF7FCFAC01B022875D8686A8007F7D4F5
:101990002078400760D5E8690027C00008D4E869CE
:1019A00040F08050E861E869012700F08050009025
:1019B0005C480168C90513D40168834641F480710D
:1019C0000160FFF7DBFA824606E000BFFFF7D6FAB8
:1019D000A0EB0A0064284ED8DBF80000C005F5D55E
:1019E000E06801280AD008B1052813D0286A20F041
:1019F00001002862286A20F0040002E0286A40F012
:101A000001002862E06841F2883B98B1FFF7B6FA1E
:101A100082460BE0286A40F004002862EEE700BF2F
:101A2000FFF7ACFAA0EB0A0159455AD8286A80079B
:101A3000F6D50CE0FFF7A2FA824605E0FFF79EFA22
:101A4000A0EB0A0159454CD8286A8007F6D41FB18B
:101A5000E86920F08050E861E06988B36968C1F303
:101A60008101022944D00228C6F8608004D0FFF723
:101A700085FA044638E034E0FFF780FA074604E0D0
:101A8000FFF77CFAC01B02282BD828688001F7D406
:101A9000206AB0F5803F05D16868A16820F4003065
:101AA00008436860D4E908010843696821F47411A7
:101AB00008436860C6F86090FFF760FA044606E0E5
:101AC00025E000BFFFF75AFA001B022809D8286852
:101AD0008001F7D51BE000BFFFF750FA001B02287A
:101AE00002D90320BDE8F88F28688001F4D40EE005
:101AF0000128F7D06868226A00F48031914204D14D
:101B0000616A00F47010884201D00120EAE70020E9
:101B1000E8E7000000100240000042428004424218
:101B2000FC00002000700040704710B5401EB0F16E
:101B3000807F01D3012010BD4FF0E02460610F21B0
:101B4000601702F063F80020A061072020610020E8
:101B500010BD10B5FFF7E8FF10BD704770470000DB
:101B600070B590F83C20012A26D0012480F83C4032
:101B7000022280F83D2003685A689D6822F07006B2
:101B80000A6832435A600D4B02689A4208D0B2F19B
:101B9000804F05D00A4B9A4202D00A4B9A4204D198
:101BA000496825F080031943916080F83D40002189
:101BB00080F83C10084670BD022070BD002C01402A
:101BC00000040040000800402DE9F0410D460400EB
:101BD00003D094F83D0018B108E00120BDE8F08181
:101BE000002084F83C00204600F040F8022084F8F1
:101BF0003D002068816844F2070291438160211D05
:101C0000206801F061FD226890689169166A2B686E
:101C1000AF69034340F20330814341EA0721A868DA
:101C2000EF6908434FF6FC418843E96840EA072022
:101C3000014328692F6A000140EA073008436968B8
:101C40006D6926F0220646EA05152943936022684D
:101C5000906154F8460B0162012004F81F09E075F9
:101C60002076E0762077A0750020B7E700B585B034
:101C70000021009101910291039101681A48B1F18C
:101C8000804F1BD0194A914216D1C16941F004011D
:101C9000C161C16901F004010491816941F0080149
:101CA00081618069694600F008000490C0200090BE
:101CB0000F4800BFFFF768F805B000BDC16941F0EB
:101CC0000101C161C16901F001010491816941F023
:101CD000040181618069694600F0040004900320DA
:101CE00000900448E6E700000010024000080040B1
:101CF000000C01400008014070B590F83E600446B9
:101D000090F83F5090F8423090F84320022021B1E3
:101D100004290ED0012E1BD114E0012E18D1012B65
:101D200016D184F83E0084F8420001220021206888
:101D300020E0012D0CD1012A0AD184F83F0084F85B
:101D4000430014E0012D03D1012B01D1012A01D060
:101D5000012070BD84F83E0084F83F0084F8420002
:101D600084F8430001220021206801F0E3FC0122F5
:101D70000421206801F0DEFC2068016841F00101C7
:101D80000160002070BD000070B51F4CA04216D14C
:101D90001E4801680A0612D41D4D4A0610D541F0AE
:101DA000800101600C21204600F080FB2860206843
:101DB000016A21F4005101622068016A016270BD6C
:101DC00000214022296002602068026A41F211135A
:101DD0001A4207D1026A9B101A4203D1026822F00C
:101DE00001020260206841622068016A21F400510A
:101DF00001622068016A41F40051016220680168B3
:101E000041F00101016070BD9405002094000020A4
:101E1000980000202DE9F041054690F83C000C4662
:101E2000012836D0012085F83C008AB3042A42D02C
:101E30002868082A51D0D4E90023E168066A26F40C
:101E400080560662C669076A26F4407646EA03238E
:101E50004FF6FF7606EA013123F4704319434FF43D
:101E6000005627F4005306EA02321A43C1610262A7
:101E70002868C16921F44061C1612868C169A2680C
:101E800041EA0221C161002085F83C00BDE8F081F3
:101E900001E00220FAE7D4E90012E368286801F0C3
:101EA000F9FC2868816921F00C0181612868816949
:101EB000A26811430FE0D4E90012E368286801F03A
:101EC00015FD2868816921F4406181612868816974
:101ED000A26841EA02218161D5E7D4E90027267B87
:101EE000016A21F480710162C169036A21F0030172
:101EF000394321F0F00731074FF4007647EA1161CA
:101F000023F4007306EA02221A43C16102622868C0
:101F1000C16921F00C01C1612868C169A26811433F
:101F2000B0E710B5040003D094F83D0010B107E00D
:101F3000012010BD002084F83C00204600F01EF86F
:101F4000022084F83D00211D206801F0BDFB012026
:101F500084F8460084F83E0084F83F0084F840008E
:101F600084F8410084F8420084F8430084F8440077
:101F700084F8450084F83D00002010BD00B585B010
:101F80000021009101910291039100681649884255
:101F900027D11648816941F400618161816901F4AA
:101FA00000610491816941F00401816180696946A1
:101FB00000F0040004904FF4006000900C48FEF71D
:101FC000E3FE002211461920FFF700FB1920FFF75E
:101FD000EFFA002211461B20FFF7F8FA1B20FFF74B
:101FE000E7FA05B000BD0000002C014000100240DF
:101FF0000008014010B5044651B104290DD008294C
:1020000010D094F8410094F84520012811D10EE039
:1020100094F83E0094F84220F7E794F83F0094F8D3
:102020004320F2E794F8400094F84420EDE7012AB9
:1020300001D0012010BD022051B1042911D008297E
:1020400018D084F8410084F845000C291BD136E0F3
:1020500084F83E0084F842002068C26842F0020220
:1020600010E084F83F0084F843002068C26842F022
:10207000040207E084F8400084F844002068C26845
:1020800042F00802C2600122206801F053FB0E49B1
:102090002068884208D0B0F1804F05D00B498842B3
:1020A00002D00B49884204D1816801F0070106295A
:1020B00003D0016841F001010160002010BD2068DB
:1020C000C26842F01002DDE7002C0140000400402D
:1020D0000008004070B50446006801694FF0000533
:1020E000C943890715D4C168C943890711D4E91EBA
:1020F000016101202077206880698007204602D096
:10210000FFF742FE04E000F0BFF8204600F062F95D
:10211000257720680169C943490717D4C168C943B5
:10212000490713D46FF00401016102202077206871
:10213000806910F4407F204602D0FFF725FE04E0BE
:1021400000F0A2F8204600F045F9257720680169E3
:10215000C943090716D4C168C943090712D46FF0EF
:1021600008010161042020772068C06980072046AB
:1021700002D0FFF709FE04E000F086F8204600F0E8
:1021800029F9257720680169C943C90617D4C168B0
:10219000C943C90613D46FF01001016108202077EC
:1021A0002068C06910F4407F204602D0FFF7ECFDA4
:1021B00004E000F069F8204600F00CF9257720686B
:1021C0000169C943C90708D1C168C943C90704D116
:1021D000891E0161204600F04DF920680169C9435C
:1021E000090609D4C168C943090605D46FF0800106
:1021F00001612046FFF7B1FC20680169C943490627
:1022000009D4C168C943490605D46FF04001016192
:10221000204600F060F920680169C94389060BD4A3
:10222000C168C943890607D46FF0200101612046C7
:10223000BDE87040FFF792BC70BD000000B585B0EE
:102240000021009101910291039100680B4988429D
:1022500011D10B48816941F00401816180696946AF
:1022600000F004000490C020009002200190039030
:102270000448FEF789FD05B000BD000000040040E1
:102280000010024000080140704770B5044690F805
:102290003C000D4601280AD0012084F83C0042B1E0
:1022A000042A18D0082A2AD00C2A4DD139E002205D
:1022B00070BD206801F04CFA2068816941F0080186
:1022C00081612068816921F0040181612068816950
:1022D0002A69114311E0206801F062FA20688169DF
:1022E00041F4006181612068816921F4806181612C
:1022F000206881692A6941EA0221816124E020681D
:1023000001F07AFA2068C16941F00801C1612068D2
:10231000C16921F00401C1612068C1692A691143C2
:1023200011E0206801F094FA2068C16941F400616D
:10233000C1612068C16921F48061C1612068C169FF
:102340002A6941EA0221C161002084F83C0070BD85
:1023500010B5040003D094F83D0010B107E001204F
:1023600010BD002084F83C00204600F01FF8022039
:1023700084F83D00211D206801F0A6F9012084F8B1
:10238000460084F83E0084F83F0084F8400084F85A
:10239000410084F8420084F8430084F8440084F843
:1023A000450084F83D00002010BD000008B500681D
:1023B0000649884208D10648C16941F00201C1615D
:1023C000C06900F00200009008BD00000004004059
:1023D000001002407047000010B50446022249B1C7
:1023E00004290ED0082913D094F84100012816D0F2
:1023F000012010BD94F83E000128F9D184F83E2058
:102400000FE094F83F000128F2D184F83F2008E063
:1024100094F840000128EBD184F8402001E084F8D2
:1024200041200122206801F085F90F492068884287
:1024300003D1426C42F4004242642068884208D0D2
:10244000B0F1804F05D00949884202D0084988423E
:1024500004D1816801F00701062903D0016841F029
:1024600001010160002010BD002C0140000400406B
:10247000000800400A4988420AD10A490868020651
:1024800006D4420604D5C243920602D0401C08601E
:10249000704740F0800008604FF6FF700249F6E791
:1024A000940500209400002098000020024600209F
:1024B00041B1042909D008290AD00C2901D110689A
:1024C000006C70471068406B70471068806B7047F5
:1024D0001068C06B704770477047000070B50268A5
:1024E00004461068D168536910F00F0F52D003F002
:1024F000010501F490762E435FD0C20705D0CA05CE
:1025000003D5E26B42F00102E263420705D5DA0728
:1025100003D0E26B42F00202E263820705D5DA07DC
:1025200003D0E26B42F00402E263020707D501F038
:1025300020022A4303D0E26B42F00802E263E26B1E
:10254000002A33D0800604D5880602D5204601F043
:102550008BFA20684069E16BC0F38010090700D452
:1025600028B3204601F072FA2068416949061AD55D
:10257000416921F040014161606BA0B12D49416387
:10258000606BFEF7A3FB002810D0606B416BBDE8C9
:1025900070400847830610D58B060ED52046BDE84F
:1025A000704001F061BA2046FFF796FF70BD2046EB
:1025B000FFF792FF0020E06370BD03062BD50B06EA
:1025C00029D594F839002128F6D1A068B0F5805FAC
:1025D00001D12069B0B1206A411C216221680078D4
:1025E0004860E08C401E0004000CE084E4D12068C8
:1025F000C16821F08001C1602068C16841F04001DC
:10260000C16070BD206A0088C0F308005060206A75
:10261000801C2062E5E74006F3D54806F1D5D16875
:10262000204621F04001D160202184F8391000F0CB
:1026300076F870BD3D3A000870B5040004D094F8F7
:102640003900002510B106E0012070BD84F8385033
:10265000204600F023F8242084F839002068C1685F
:1026600021F40051C160204601F044FA206801695C
:1026700021F4904101612068416921F02A01416102
:102680002068C16841F40051C160E563202084F8EE
:10269000390084F83A00002070BD000030B585B0E4
:1026A000002400940194029403940068184988421D
:1026B0002CD11848816941F480418161816901F41C
:1026C00080410491816941F0040181618069124D6A
:1026D00000F0040004904FF400700090022001907C
:1026E0000320039069462846FEF74EFB2815CDE9E6
:1026F0000004694628460294FEF746FB0022114674
:102700002520FEF763FF2520FEF752FF05B030BD00
:102710000038014000100240000801407047704737
:10272000FEE701684A69D24352050FD46FF4806214
:102730004A61002140F8301F2022427381730269F0
:1027400042F00402026101730120704700207047CB
:102750002DE9F84F0446006889460B9D01689846AC
:10276000174641F4806101602068016841F480717E
:10277000016000954FF0011B0022594620460A9B3C
:1027800000F0DEF84FF4007A40B120680068C00520
:1027900001D5C4F840A00320BDE8F88F216809F0F6
:1027A000FE0008612B46284920460A9A00F0FCF8F2
:1027B000F0BB20684169806900902A4620460A994A
:1027C00000F070F940B1206C04283AD1206801680B
:1027D00041F40071016034E0FEB2B8F1010F09D09C
:1027E0002168380A08612A4620460A9900F05AF9F9
:1027F0000028E8D1206806612A4620460A9900F0A0
:1028000051F90028DFD12068016841F4807101602E
:1028100000950022594620460A9B00F091F80028B6
:10282000B3D1216809F0FF0040F00100086100E029
:1028300007E02B46044920460A9A00F0B5F8002824
:10284000AAD00120A8E70000020001002DE9F8430A
:10285000044600680D46DDE908970168984616466B
:1028600041F4807101604B4600224FF00111204677
:10287000009700F065F848B120680068C00502D5EF
:102880004FF4007020640320BDE8F883216805F050
:10289000FE0008613B464A461549204600F084F890
:1028A00088B920684169806900903A4649462046C7
:1028B00000F0F8F848B1206C042804D120680168C1
:1028C00041F4007101600120DEE7F5B2B8F1010FBB
:1028D00009D02168300A08613A464946204600F08E
:1028E000E1F80028E7D1206805610020CCE700006E
:1028F0000200010070B516460D4604460DE0204664
:10290000FFF70FFF08B1012070BD681C05D0FEF76E
:1029100035FB801BA84207D835B120684069C04309
:102920004007ECD4002070BD002044F8300F202177
:102930006173A073216941F0200121612073E2E7F6
:102940002DE9F0471E4690460D460446C1F3074761
:10295000DDF8209008E0701C06D0FEF70FFBA0EB1E
:102960000900B0420FD876B12068012F18D08069D5
:1029700025EA00000004000C14D000214145EAD0F3
:102980000020BDE8F087002044F8300F202161735B
:10299000A073216941F02001216120730120F0E73B
:1029A0004069E5E70121E9E72DE9F0479A469146BC
:1029B0000E46044600254FF02008C1F3074725E0E6
:1029C00020684069C043400514D42068016841F480
:1029D0000071016021686FF480604861256384F8AC
:1029E0003D8084F83E50206C40F00400206484F860
:1029F0003C501FE0B9F1FF3F08D0FEF7BFFAA0EB53
:102A00000A0149450CD8B9F1000F09D02068012FFF
:102A100013D0806926EA00000004000C0BD0CFE739
:102A200044F8305F84F80D80A573206940F02000E1
:102A3000206125730120BDE8F0874069EAE72DE9B0
:102A4000F041002590460E460446202717E04069D5
:102A5000C043C0060CD454F8301B6FF0100048611E
:102A600044F810596777A577206A2062257717E028
:102A7000FEF784FAA0EB0800B04208D83EB1206807
:102A80004169C9434906E2D40020BDE8F08144F819
:102A9000305F6773A573206940F0200020612573C3
:102AA0000120F2E770B516460D4604460DE02046BB
:102AB000FFF737FE08B1012070BD681C05D0FEF796
:102AC0005DFA801BA84207D835B120684069C04331
:102AD0000006ECD4002070BD002044F8300F202107
:102AE0006173A073216941F0200121612073E2E745
:102AF00070B51F48016C002938D01E491E4A204B72
:102B000009681268446C8D1A1C4A04F1640618683E
:102B10001168B54203DD19391930116025E0A4F1BF
:102B20006406B54203DA1931193811601DE004F169
:102B30001E06B54203DD0F390F30116015E0A4F118
:102B40001E06B54203DA0F310F3811600DE004F1B3
:102B50000F06B54203DDC91EC01C116005E00F3C25
:102B6000A54203DAC91CC01E1160186070BD0000C8
:102B7000A000002024000020280000201C000020CD
:102B8000200000207CB514460D4606466A46062104
:102B90003B2000F07DF800280BD1BDF8001049BAA9
:102BA0003180BDF8021049BA2980BDF8041049BA35
:102BB00021807CBD7CB514460D4606466A4606213A
:102BC000432000F065F800280BD1BDF8001049BA89
:102BD0003180BDF8021049BA2980BDF8041049BA05
:102BE00021807CBD10B51C48FEF7CEF980216B20FA
:102BF00000F098F800216B2000F094F8032000F01A
:102C00005CF8002000F054F8322000F073F8002146
:102C1000382000F087F800216A2000F083F80021B6
:102C2000232000F07FF88021372000F07BF875200A
:102C300000F014F8682801D0012010BD01216B209C
:102C400000F070F800216C2000F06CF8322000F0E9
:102C500051F8002010BD0000400500201FB50021E4
:102C60008DF80C1040F6FF73012203A98DE80E00C9
:102C700013460246D1210548FEF74AFA6420FEF7C2
:102C800071F89DF80C0004B010BD00004005002054
:102C90000EB540F6FF730092CDE901130246012301
:102CA000D1210248FEF734FA00200EBD4005002075
:102CB000C006010E1C2000F035B8C006010E1B2016
:102CC00000F030B8BC2801D3012110E0622801D304
:102CD00002210CE02A2801D3032108E0142801D3A3
:102CE000042104E00A2801D3052100E006211A206E
:102CF00000F018B810B504464FF47A70844201D938
:102D0000044602E0042C00D20424B0FBF4F0401E80
:102D1000C1B2192000F006F86008BDE81040FFF7C6
:102D2000D1BF00001FB540F6FF738DF80C100122D3
:102D300003A98DE80E0013460246D0210448FEF791
:102D40000FFB6420FEF70EF804B0002010BD000059
:102D5000400500202DE9F04385B000243E48009452
:102D6000019402940394816941F0100181618169A9
:102D700001F010010491816941F0200181618169B4
:102D800001F020010491816941F0040181618169B0
:102D900001F004010491816941F0080181618069B9
:102DA0002E4F00F008004FF40055049000222946F1
:102DB0003846FEF7DEF8DFF8A88000221C214046E6
:102DC000FEF7D7F8DFF89C9000224FF20301484647
:102DD000FEF7CFF80095022601250396CDE90154B0
:102DE00069463846FDF7D0FF04200327CDE90005EA
:102DF000CDE9024769464046FDF7C6FF1820CDE9F8
:102E00000005CDE9024669464046FDF7BDFF4EF29A
:102E10000300CDE90005CDE9024669464846FDF7C5
:102E2000B3FF2803CDE90005CDE9024769464846CE
:102E3000FDF7AAFF4FF401408DE831006946404696
:102E4000FDF7A2FF28208DE8310069464846FDF7CE
:102E50009BFF05B0BDE8F083001002400010014068
:102E600000080140000C01400D4810B50B490160FD
:102E70000C49416000214FF480428160C0E9031297
:102E800041618161C1610162FEF77EF8002803D0D3
:102E9000BDE81040FDF7CDBE10BD0000005400405D
:102EA00040050020A086010010B586B00024194816
:102EB00005940494009401940294154903940160CC
:102EC0004721C0E901144FF6FF71C0E903144461C2
:102ED0008461FFF726F808B1FDF7ABFE049404A95E
:102EE0000C480594FEF73CFE08B1FDF7A2FE012058
:102EF000CDE9004002940C22694606480394FEF78F
:102F000089FF002801D0FDF794FE06B010BD000037
:102F1000002C01409405002010B58CB02421684697
:102F2000FDF719F90024154809944FF080410A94DF
:102F3000C0E900144FF6FF71C0E9024104618461E9
:102F40000320CDE900040120CDE902040494CDE979
:102F500005400794694609480894FEF735FE08B114
:102F6000FDF767FE099409A904480A94FEF7F8FDE5
:102F7000002801D0FDF75DFE0CB010BDDC0500207F
:102F800010B58AB0002407941C2168460894FDF708
:102F9000E2F81B48194901600321C0E901144FF40C
:102FA0007A71C0E903148461FFF7D2F908B1FDF723
:102FB00040FE079407A912480894FEF7D1FD08B116
:102FC000FDF737FE602000906420CDE90104002267
:102FD00069460B480494FFF758F908B1FDF729FE3C
:102FE000042269460648FFF750F908B1FDF721FEB3
:102FF0000348FFF723F90AB010BD000000040040A9
:103000002406002010B58CB024216846FDF7A3F8F3
:1030100000241648099414490A94C0E900144FF694
:10302000FF71C0E90241046184610320CDE900041D
:103030000120CDE902040494CDE9054007946946D6
:103040000A480894FEF7C0FD08B1FDF7F2FD0994A7
:1030500009A906480A94FEF783FD002801D0FDF770
:10306000E8FD0CB010BD0000000800406C06002018
:103070000C4810B50A4901604FF4E131416000216C
:1030800081600C22C160C0E904128161C161FFF757
:10309000D3FA002803D0BDE81040FDF7CABD10BD2B
:1030A00000380140B4060020FEE700002DE9F0479B
:1030B000214C6069FDF7C1FA0646E16E606DFDF7CF
:1030C000A7F805463146FDF751F80646E064A069C9
:1030D000FDF7B3FA01462846FDF748F80546206596
:1030E0003046FDF7C4FA06462846FDF7C0FA4FF40D
:1030F0007A78124D8146464500DDE564E06CFDF7C7
:10310000B6FA0F4F0F4EB84200DAE664C14500DD53
:103110002565206DFDF7ABFAB84200DA2665206D13
:10312000FDF7A5FA0546E06CFDF7A1FA2946BDE8D2
:10313000F04700F02BB900000800002000007A449E
:1031400018FCFFFF00007AC4FEE700002DE9F04103
:1031500086B000241D480094019402940394816970
:1031600041F008018161816901F0080104918169E0
:1031700041F0100181618069154F00F010004FF49B
:1031800000550490002229463846FDF7F2FEDFF88C
:10319000448000224FF470414046FDF7EAFE00955E
:1031A000022601250396CDE9015469463846FDF70C
:1031B000EBFD4FF46040CDE90005CDE902466946DC
:1031C0004046FDF7E1FD06B0BDE8F0810010024089
:1031D00000100140000C01407047000010B5104C79
:1031E000012204212046FDF7C4FE0120FDF7BAFDAF
:1031F000002204212046FDF7BCFE0A4881680A0629
:103200000CD5C268890602EB9121AA22514342F2F1
:10321000107291FBF2F101600021816010BD00008D
:10322000000801408C00002070B5224C4FF47A76E3
:10323000E568022D00DC3546FFF7D0FF1E4908681F
:10324000B04201DC032800DC0D60002004EB8002AA
:10325000526844F82020401C0328F7DB0868E0602F
:10326000142816DC0022104654F82030142B01DC00
:10327000012300E00023401C1A440428F4DB032A45
:1032800008DA41F60A2008600A490C390889173023
:10329000088170BD074A002012F1100254F8201076
:1032A000B14200DB002142F82010401C0428F5DB6D
:1032B00070BD0000200500208C0000207047000039
:1032C00070B51F4C00201F4DA06260622062E06359
:1032D000A063606320212846FDF746FEA060082118
:1032E0002846FDF741FE184DE0604FF400412846A6
:1032F000FDF73AFE2061A9152846FDF735FE60610D
:103300006068012802D0022803D004E000F00AFB24
:1033100001E0FDF7F9FB616B206A08440B49086086
:10332000A16B606A08440A490860E16BA06A014425
:10333000084801606168002901D10621016070BD63
:10334000A0000020000C0140000801401C000020EB
:103350002000002014000020084809490A4A00689B
:103360000968411A07480163A1F26C71C162012129
:10337000C1610021C0E912120164704724000020DD
:1033800028000020A00000200000F03F2DE9F041BF
:103390001E4F1F4E0C4605000DD501221146384622
:1033A000FDF7E7FD002202213846FDF7E2FD316816
:1033B000684248630BE0002201213846FDF7D9FD41
:1033C000012202213846FDF7D4FD30684563114DD6
:1033D000002C0EDA012208212846FDF7CAFD002242
:1033E00010212846FDF7C5FD316860428863BDE8BD
:1033F000F081002208212846FDF7BBFD01221021A3
:103400002846FDF7B6FD30688463F0E7000C014004
:103410002406002000080140084809490A4A0068BB
:103420000968411A0748016301F26C71C162022107
:10343000C1610021C0E9121201647047240000201C
:1034400028000020A00000200000F03F10B5064C2E
:10345000012007492064054809680068401AFDF703
:10346000F9FA606410BD0000A000002024000020D4
:10347000280000200649002031F8102012B1521E09
:1034800021F81020401CC0B20528F5D37047000079
:10349000140500202DE9F0412C4CDFF8A8802A4FBC
:1034A000D4E91901084400EBD0704010FDF7C5F8CD
:1034B0000021A1666166FDF712F94FF03332244B0B
:1034C000FCF7C3FF05460E46E06DFDF708F94FF027
:1034D0006632204BFCF7B9FF2A463346FCF70EFF55
:1034E000FDF728F9A0650546E065E068FDF7A5F859
:1034F0002946FCF78DFE05460146206EFCF736FE98
:103500002066FDF7B4F8B0F5617F01DC206E01E0C4
:1035100011482066FDF7ABF810F5617F01DA0F481E
:103520002066206F60673946206EFCF777FE0646FE
:1035300041462846FCF772FE3146FCF717FE20672D
:10354000BDE8F081000024411B2FDD3D0800002074
:103550003333D33F6666E63F00006144000061C438
:1035600070B50B4C616F206F0E46FCF751FE05469F
:10357000A06F401CFDF761F82946FCF74FFE054996
:10358000FCF77EFE3146FCF7F1FDE06670BD000001
:10359000080000200000C8410B4A0C4891690068EF
:1035A000042907D041B101290AD0022908D00329F2
:1035B00002D07047002191611428FADCFFF7CCBEDD
:1035C0001428F6DCFFF728BFA00000208C000020A4
:1035D00070B5FFF74FFF1B4C1B4D2068401C20604F
:1035E0002868401C2860FFF7BBFF206800260528DC
:1035F00003D32660FDF746FB1DE0012806D0022814
:1036000009D003280AD0042813D014E0FDF72AFBC0
:10361000FDF7A2F90FE0FDF703FA0CE00B4C206870
:10362000401C2060052806D3FFF734FF26602E607B
:1036300001E0FFF73BFDFDF763FFBDE87040FEF7DB
:1036400088BA00008400002080000020880000204C
:1036500030B58FB028216846FCF77DFD14210AA8FB
:10366000FCF779FD01210804CDE900100024029443
:1036700002250491CDE907504FF4E0100990684607
:10368000FEF7C2F808B172B6FEE70F20CDE90A05D1
:103690004FF48060CDE90C4002210AA80E94FDF79A
:1036A000C7FF002801D072B6FEE70FB030BD7047EB
:1036B0000148FEF70FBD0000940500200148FEF709
:1036C00009BD000094050020F0B50268164B174CA8
:1036D000174D4FF08047984205D0B84203D0A04222
:1036E00001D0A84203D122F070064A6832439842C2
:1036F00005D0B84203D0A04201D0A84203D122F4A1
:103700004074CA6822434C6922F08002224302605E
:103710008A68C2620A688262984201D109690163BB
:1037200001214161F0BD0000002C01400004004077
:103730000008004010B501F01F030121046A994000
:103740008C430462016A9A401143016210BD00007B
:1037500030B5026A22F001020262026A436884699B
:1037600024F073050C682C4322F002058A682A4372
:103770000A4DA8420BD122F00805CA6823F4407311
:103780002A434D6922F004021D438B692B43436099
:10379000846149684163026230BD0000002C014031
:1037A00030B5026A22F010020262026A436884693C
:1037B0000D6824F4E64444EA05248D6822F02002D2
:1037C00042EA05120B4DA8420ED1CD6822F08002CC
:1037D00042EA05124D6923F4406343EA85038D698B
:1037E00022F0400243EA85034360846149688163B3
:1037F000026230BD002C014030B5026A22F48072B2
:103800000262036A4268C46923F4007324F07305FA
:103810000C682C438D6843EA05230C4DA8420ED159
:10382000CD6823F4006343EA05234D6922F4405236
:1038300042EA05128D6923F4806342EA0512426070
:10384000C4614968C163036230BD0000002C0140BF
:1038500030B5026A22F480520262046A4268C36987
:103860000D6823F4E64343EA05238D6824F40054ED
:1038700044EA0534064DA84204D14D6922F4804241
:1038800042EA85124260C36149680164046230BD46
:10389000002C014070B5046A24F0010404628469BC
:1038A000056A0F4EB04208D0B0F1804F05D00D4EE2
:1038B000B04202D00C4EB04203D124F003041443B2
:1038C00001E044F001041A0724F0F00444EA126213
:1038D00025F00A0301F00A0119438261016270BDFB
:1038E000002C0140000400400008004030B5046A8C
:1038F00024F0100404628469056A24F4407444EAE4
:10390000022222F470444FF6FF7202EA033222438D
:10391000A02425F0A00304EA011119438261016289
:1039200030BD000030B51B480021416381630B218D
:10393000C163D0E90234026919198D1841690D4437
:10394000032D23DC144D2D68B5F5000F1EDA012C74
:1039500003D1FA24846364424463012B05D1836B51
:1039600064338363436B643B4363012A05D1426B39
:1039700064324263826B643A8263012905D1416BF0
:10398000FA314163816BFA39816330BD0721C1632C
:1039900030BD0000A00000204400002070B5104E93
:1039A00000220E4BD6E9120105460C46FCF74DFDF0
:1039B000FCF776FE306200220A4B28462146FCF7CF
:1039C00044FDFCF76DFE70620022074B284621463D
:1039D000FCF73BFDFCF764FEB06270BD00005E408A
:1039E000A000002000005EC0000018C070B5104E9E
:1039F00000220E4BD6E9120105460C46FCF725FDC8
:103A0000FCF74EFE306200220A4B28462146FCF7A6
:103A10001CFDFCF745FE70620022074B284621463C
:103A2000FCF713FDFCF73CFEB06270BD00005EC009
:103A3000A000002000005E40000018C010B5406AE1
:103A40000021C185C184FEF747FD10BD0168CA6829
:103A500022F49072CA6001684A6922F001024A6148
:103A6000202180F83A10704710B590F83A102229BA
:103A700001D0022010BD82684FF480539A4201D1D8
:103A8000016921B1816A9A421BD04AB10AE00268F9
:103A9000816A5268C2F308020A80816A891C08E0C0
:103AA000026972B10268526802F07F020A70816A8C
:103AB000491C8162C18D491E0904090CC18503D0CE
:103AC00016E002685268F1E70168CA6822F0200235
:103AD000CA600168CA6822F48072CA6001684A69D3
:103AE00022F001024A61202180F83A10FEF716FE0A
:103AF000002010BD70B5044600680169E26821F439
:103B00004051114301612169A0680843616908437C
:103B10002168CA6841F20C639A430243CA60206874
:103B20004169A26921F44071114341611E49206835
:103B3000884202D1FDF722FE01E0FDF70FFE00EB07
:103B4000C00101EB0012606864218000B2FBF0F359
:103B5000B3FBF1F36FF018067343B2FBF0F5B2FB61
:103B6000F0F605EB8305322303EB0515B5FBF1F504
:103B7000B6FBF1F605F0F00505EB0615B2FBF0F625
:103B8000B2FBF0F0B0FBF1F06FF01802504306EB1F
:103B9000800003EB0010B0FBF1F0216800F00F0093
:103BA0002844886070BD0000003801400148FEF7DD
:103BB00095BC0000B4060020FEE700000FB4084BDF
:103BC00010B504A902AA039800F0A8F8044602A9B7
:103BD000002000F04DF9204610BC5DF814FB0000F9
:103BE000713E0008490050EAC12018BF04204A0D68
:103BF00018BF40F0010040F2FF72B2EB515F08BF06
:103C000040F00200012808BF052070470907090E8F
:103C1000002804DB00F1E02080F80014704700F079
:103C20000F0000F1E02080F8141D70472DE9F041ED
:103C30004F1E00EBC7010446D1E9000115461E46A0
:103C400037F006020DD02A463346FCF7FEFB7F1EF6
:103C500004EBC703D3E90023FCF750FB37F006025F
:103C6000F1D1022F25D0042F13D0062F18BFBDE8A5
:103C7000F0812A463346FCF7E8FBD4E90A23FCF737
:103C80003DFB2A463346FCF7E0FBD4E90823FCF76A
:103C900035FB2A463346FCF7D8FBD4E90623FCF76C
:103CA0002DFB2A463346FCF7D0FBD4E90423FCF76E
:103CB00025FB2A463346FCF7C8FBD4E90223FCF770
:103CC0001DFB2A463346FCF7C0FBD4E90023BDE8C0
:103CD000F041FCF713BB0122FCF798BCFCF70EBBCC
:103CE000024A00201107FCF791BC000001FDFFFF14
:103CF00002E008C8121F08C1002AFAD170477047B5
:103D0000002001E001C1121F002AFBD17047000012
:103D10000149086070470000000100202DE9FF4FB5
:103D200089B09B460446002506E025280BD05A465C
:103D30000B999047641C6D1C20780028F5D10DB0BC
:103D40002846BDE8F08F0027B8460122474900E029
:103D5000074314F8013F203B02FA03F00842F7D171
:103D600020782E2819D114F8010F47F004072A28CB
:103D70000ED06FF02F022078A0F1300109290CD865
:103D800008EB880102EB410100EB0108641CF2E73B
:103D90000A98641C50F8048B0A9020780028CED032
:103DA000642808D0692806D075281ED05A460B9979
:103DB00090476D1C58E00A994FF00A0901C90A9111
:103DC000002802DA40422D2102E0390504D52B21DA
:103DD0008DF82010012103E0F90704D02021F7E736
:103DE0008A4608AE0DE00021FAE70A994FF00A0969
:103DF00001C90A91F7E74946FCF7B8FC303106F8EB
:103E0000011D0028F7D1ADEB060000F1200978076D
:103E100001D44FF00108C84502DDA8EB090000E01D
:103E200000208046002706E008A85A46C05D0B998E
:103E300090476D1C7F1C5745F6DB04E030205A4646
:103E40000B9990476D1CB8F10001A8F10108F5DC51
:103E500005E016F8010B5A460B9990476D1CB9F115
:103E60000001A9F10109F4DC641C65E709280100DF
:103E70000A68531C0B601070704700002DE9F84F62
:103E800004460D4621F0004000917349814211DC47
:103E90007249884201DC06D12CB120462946BDE892
:103EA000F84FFFF718BF6E48002DCCBF6D496E4923
:103EB000BDE8F88F6D49814211DD6D498142D8BF5F
:103EC0004FF0FF366DDD20462946FFF78BFE0428B4
:103ED00008BFFFF705FF20462946BDE8F88F654972
:103EE000654F25F00045814233DD6449814219DD8B
:103EF000002632464FF0804320462946FCF7FEF963
:103F000080468A46012220462946FCF77FFB002294
:103F10003B46FCF794FA42465346FCF708FB04463E
:103F20000D463EE001260022BA463B462046294681
:103F3000FCF7E4F980460F46002253462046294606
:103F4000FCF77DFA42463B46FCF7F1FA04460D4683
:103F500027E04B4981421BDDDFF828A10226002221
:103F6000534620462946FCF770FA00223B46FCF7F0
:103F7000C5F980460F460022534620462946FCF7E5
:103F80005EFA42463B46FCF7D2FA04460D4608E08C
:103F9000032622462B4600203B49FCF7C8FA04467C
:103FA0000D4622462B4610461946FCF74EFA8B4624
:103FB000824602460B46FCF748FA0746024633485B
:103FC00088460B4606217844FFF730FE52465B4692
:103FD000FCF73BFA82462E488B463A46434605217B
:103FE0007844FFF723FE3A464346FCF72EFA024692
:103FF0000B46002E504659460CDAFCF77FF9224654
:104000002B46FCF722FA01B022462B46BDE8F04FC2
:10401000FCF718BAFCF772F922462B46FCF715FAA2
:104020001C4A7A4402EBC603D3E90023FCF707FAE3
:1040300022462B46FCF703FA174A7A4402EBC603E2
:10404000D3E90023FCF7FEF9009A002AB8BF81F0FB
:104050000041BDE8F88F0000000010440000F07F30
:10406000182D4454FB21F93FFB21F9BF0000DC3F30
:104070000000203E0000F33F0000F03F0000E63F5C
:10408000008003400000F83F0000F0BFA6160000CB
:104090006416000002160000CA1500002DE9F04D5C
:1040A0009446CCF1000423F000464CEA0404594F36
:1040B00046EAD4749A46884621F00042BC4206D8AB
:1040C000454240EA050442EAD474BC4204D9BDE842
:1040D000F04D6246FFF702BEAAF14055A5F17F659B
:1040E00055EA0C040BD0022404EAAA744A4DDFF806
:1040F0002CE144EAD87452EA000B04D00CE0BDE88D
:10410000F04DFFF7BBBE002C14BF012CBDE8F08DB5
:10411000022C30D0032C32D056EA0C0B0AD0BE420F
:1041200020D1BA4209D126F0804622F0804233469F
:10413000114617E000291ADB25E0DFF8E4B0FB4464
:10414000002C04BFDBE90001BDE8F08D012C02BFAB
:10415000DBE9000181F00041BDE8F08D022C0AD0BE
:10416000032C0CD0BA4212D1B8F1000F0BDA2A4856
:104170002C49BDE8F08D28462B49BDE8F08D284636
:104180007146BDE8F08D24482849BDE8F08D921BAA
:1041900012153C2AC4BF204F244E10DCBAF1000F88
:1041A000BEBF12F13C0F00273E4608DB6246FCF71B
:1041B000BEF921F00041FFF761FE07460E4694B1BB
:1041C000012C08BF86F000460DD0194A194B022C6D
:1041D0003846314615D0FCF732F92A46BDE8F04D95
:1041E000114BFCF72CB90022134638463146FCF738
:1041F00089FB04BF0220FFF78BFD38463146BDE83E
:10420000F08DFCF71CF92A46BDE8F04D064BFCF793
:1042100019B900000000F07F182D4454FB2109C09B
:104220005E150000FB21F9BFFB210940FB21F93F8E
:10423000075C143326A6A13CB8B0674F4FF47A74DC
:104240003C60FDF765F9FFF703FAFEF783FDFEF723
:104250000FFFFEF7D7FEFEF793FEFEF75DFEFEF7BB
:1042600003FEFEF721FEFEF7BDFC3C215B48FDF797
:1042700043FD3C215A48FDF73FFD00215948FEF718
:10428000ABF804215748FEF7A7F80C215648FDF774
:10429000B1FE55480068C16841F00101C160534B4F
:1042A000534A544902A800F0E5F902A800F031FD94
:1042B000002102A800F03DFD4F4902A800F093F94B
:1042C000FFF7C4F84D490020421E01F1100500BF60
:1042D00041F8204045F82020401C0428F8DB474CDA
:1042E000474EDFF820810C3C208918B947202081F7
:1042F000FEF79AFF306878B9208868B905202080D9
:10430000E088002865D040480021C8F8001001600E
:104310003E480160FEF7ECFBA0880028E4D11420A1
:10432000A08002A800F09EF839A30822002102A86C
:1043300000F030F9D5E90201CDE90001D5E900230B
:1043400036A12FA8FFF73AFC2FAB1022002102A8BC
:1043500000F020F934A31E22002102A800F01AF96F
:10436000736834A127A83A68FFF728FC27AB1E2200
:10437000322102A800F00EF930A32D22002102A85C
:1043800000F008F9D6E910232FA127A8FFF716FCA3
:1043900027AB2D22322102A800F0FCF82CA33C22EE
:1043A000002102A800F0F6F82C48D8F80030016887
:1043B0002B4800680A1A1FA127A8FFF7FFFB27ABAD
:1043C0003C22322102A800F0E5F802A800F002F930
:1043D0008AE7FEF775FF9DE78C000020DC050020D2
:1043E0006C06002024060020940500203D510008A2
:1043F000A94D0008D0540008B45100082005002041
:10440000A000002014000020200000201C0000203C
:104410004465627567446973743A00002564202519
:1044200064202564202564004469732F53746167F8
:10443000653A000025642025640000005374726111
:10444000696768743A000000202564202564000034
:1044500044656C74612F546172563A002400002048
:104460002800002001680A7C90F83810406B514306
:10447000C900FBF770BE2DE9F041044690F87000CA
:104480001F4615460E4630B1012809D002280CD02F
:10449000032815D10FE0E16D20468847284408E045
:1044A000E16D20468847301A09E0E16D20468847D3
:1044B000281A85B204E0E16D20468847304486B270
:1044C0002846A4F86460A4F8660039460025204612
:1044D00000F0C6FA010003D0204600F0F1F985B2E1
:1044E0002846BDE8F08100003FB581B0044690F851
:1044F0008C00089900283AD0BDF81000002836D06A
:10450000012811D9022902D0032907D00CE0BDF8F7
:104510000820101A401CADF8080005E0BDF80C207A
:10452000101A401CADF80C0011F0010521D0B4F8B0
:104530004810BDF80800814219D8B4F84A108142E9
:1045400015D9B4F84E30B4F84C2004A90DF10C0084
:1045500000F028F900280AD00095206BBDF8103033
:10456000BDF80C208568BDF808102046A84705B0A6
:1045700030BDB4F84C10BDF80C008142F7D8B4F847
:104580004E108142F3D9B4F84A30B4F8482004A957
:1045900002A8DDE730B4024C446030BC00F02FB913
:1045A000994D000870B50D461E460446B0F84E10F1
:1045B000B0F84C00049B00F0B0FA002809D0B4F821
:1045C0004A10B4F8480033462A46BDE8704000F06F
:1045D000A4BA70BD10B5044600F02FFB2046BDE81C
:1045E000104000F09EBB10B50446806D884209D093
:1045F00004F17400A16500F0EBFA2046BDE810401C
:1046000000F054B810BD00000149C16570470000BA
:10461000754800080021A0F85010A0F854104FF67B
:10462000FF71A0F85210A0F85610016B49680847B6
:1046300070B5044600250498A565E362616384F8BB
:10464000382084F8395084F86D5084F89150012155
:1046500084F8921084F893102063016820468847FC
:104660002046FFF7D7FF2046FFF7CEFF84F87050B3
:1046700070BD00007CB50C46009313460546084A01
:10468000084900F05EFB01A800F09CFA0146064BC9
:1046900000949DF804202846FFF7CAFF7CBD000067
:1046A000B14E000829500008354B000810B5816D47
:1046B00000291AD090F9813080F88E3090F982204C
:1046C00080F88F2090F88D1000290ED001290DD090
:1046D00090F97E4090F980100C449C4201DD80F8F6
:1046E0008E408A4201DD80F88F1010BD90F9831052
:1046F0008B4201DA80F88E1090F98410F1E72BB12B
:10470000012B05D0022B06D0104402E0084400E043
:10471000801A80B27047401AFBE72BB1012B05D0FD
:10472000022B06D0401A02E0104400E0084480B298
:104730007047801AFBE738B50446B0F85600009081
:10474000B4F85230B4F85420B4F850102046FFF7B3
:1047500029FF18B3012084F88C00B4F84810B4F88D
:104760005000814201D2A4F84800B4F84A10B4F8CD
:104770005200814201D9A4F84A00B4F84C10B4F8B0
:104780005400814201D2A4F84C00B4F84E10B4F8A1
:104790005600814201D9A4F84E0038BD002084F8AB
:1047A0008C0038BD30B504880D882544ADB2AC42CC
:1047B00005D99C4202D25D1EADB200E014469C4277
:1047C00001D2954201D8002030BD944200D2144657
:1047D0009D4200D91D460480281B0880012030BD61
:1047E00038B5C58F049C0094521BC46A92B2A0478E
:1047F00038BD38B5049C0094FFF7F2FF38BD2DE9B1
:10480000F0471C4691468846064600F0CFFC00253E
:104810004FF6FF7772682178304690470346B842DA
:1048200025D0641CA3F57F40FE38F3D04A464146AC
:104830003046FFF720FE96F8701031B1012907D0FD
:10484000022908D003290FD10AE008EB000104E097
:1048500009EB000106E0A8EB00011FFA81F803E074
:10486000A9EB00011FFA81F9284485B2D2E7284656
:10487000BDE8F0870020704710B50C4600F006F840
:104880000122641EA240801A40B210BD30B50568F6
:10489000047B2A78E2406318DBB2082B09D36D1C35
:1048A00005602D78C4F10804A5401543083BEAB221
:1048B000DBB201248C40641E14400373204630BDDB
:1048C0002DE9F843054600F1600400F00CF915F9F4
:1048D0006B6F2046E97BFFF7CFFF8146297C20469E
:1048E000FFF7CAFF0746697C20466B3DFFF7C4FF10
:1048F000804694F90A00002857DDF019404247B27B
:10490000237CA0883A464946FFF7F9FEA080237C25
:104910003A46E0884946FFF700FFE080A188277CFF
:1049200002460B4637B1012F0AD0022F40D0032F89
:104930000FD146E094F90A7030443B449BB207E043
:10494000891B491C94F90A705B1C89B29BB23844DC
:1049500080B200902846FFF725FE30B30020207279
:1049600084F8090095F876102046FFF78FFF8146FE
:1049700095F877102046FFF789FF07460022494641
:10498000284600F027F801223946284600F022F890
:1049900001212046FFF77AFF0028EFD194F90900A2
:1049A000B042DFDBA07B85F892004046BDE8F8838B
:1049B00094F90A705B1CC91B491C89B29BB2921BFB
:1049C00004E094F90A7033449BB2D21B521C92B299
:1049D000401CBDE72DE9F74F84B00D46049C94F8C8
:1049E000687094F869806034A07AC01BC6B20196E2
:1049F000B54200D201954FFA88F279B2A088B4F896
:104A000006B0237C92468946FFF779FE0290237C0C
:104A1000524649465846FFF780FE0246069808B1BE
:104A2000A17B02E0607B50B9E17B049880F8921092
:104A3000207C0090DDE901310498FFF755FDB54277
:104A400007D3A81BC5B208F10100002700F0FF083A
:104A5000CAE77819207284F8098007B0BDE8F08FA2
:104A600070B50D460146806D1730FF2D10D8612DB1
:104A700002D3B1F8881003E0412D02D3B1F88610BB
:104A80000844417819B30278AA42F9D1801C70BD5C
:104A9000B1F88A100C1826460021304600F019F8AB
:104AA00004440221304600F014F8361DA842F3D326
:104AB0004FF6FF72207802EA00216078084306D0A2
:104AC000A84201D1E01C70BDA0780444F2E70020A8
:104AD00070BD08444FF6FF720178407802EA012168
:104AE000084480B2704730B5054600F160040166A5
:104AF0000020207315F8781F2046FFF7C7FEA0722C
:104B000069782046FFF7C2FEE072A87EA07310B15C
:104B10000020E07330BD0120FBE78A4205D28342CA
:104B200001D89A4203D9012070478342F9D8002066
:104B300070470000F0B502F007060124B4400025DC
:104B400090F892E0E7B2DDF814C02C46BEF1010FF8
:104B500001D83D4600D03C46076822F00702BCF170
:104B6000000F3F7C07FB02F7BAB2476B3A4411448F
:104B700009D108785B1E284360401B0401F8010B33
:104B80001B0CF6D1F0BD0A78761C2A436240A3F1D3
:104B900001030A7016F007069BB206D06A06150ECE
:104BA0006206140E002BEED1F0BD428F114490F836
:104BB0009220012A03D800BF4FF00105F2D04FF038
:104BC0000104EFE70821017000487047140100203C
:104BD00070B5054608782870487868708878A8709D
:104BE000C878E870087928714879687188790C4626
:104BF000A871E079E871207A2872607A6872A07AE8
:104C0000A872E07AE872207B2873607B6873A07BCF
:104C1000A873E07BE873207C287411212046FFF7FD
:104C200058FF688213212046FFF753FFA882152101
:104C30002046FFF74EFFE88270BD2DE9F843064697
:104C400090F8387090F83950006800244FF6FF78DB
:104C500090F81190316830462A460B7C716B04FB4A
:104C600003FC1FFA8CFC08EACC0C61440091002183
:104C700000F040F8641C6D1CE4B2EDB2BC4201D2FD
:104C80004D45E7D3BDE8F883F0B590F838204FF6EE
:104C9000FF75036805EAC2018187197C05EAC10135
:104CA000418790F8394005EAC401C1875E7CA718A6
:104CB000B74201D9321B92B205EAC20220F8401F66
:104CC00011444180998A8180D98AC180F0BDFFF763
:104CD000DBBF0021A0F84810B0F84410A0F84A103B
:104CE000B0F84010A0F84C10B0F84210A0F84E10E8
:104CF000FFF721BD1CB58DF805108DF80620049C2A
:104D00008DF804300094012284686B460F21A0477F
:104D10001CBD30B484680023A44630BC1A460A2166
:104D2000604730B484680023A44630BC1A46102182
:104D3000604730B484680023A4460A4630BC0B2187
:104D400060472DE9F04115460E460446069F00F0E7
:104D500009F86761A660C4E903532046BDE8F04145
:104D600000F012B8002140F8081B064A02604260B9
:104D70008260C260C17681770161FF21017780F88E
:104D8000201070472D51000830B484680023A446D9
:104D900030BC1A4609216047080001D00A2801D119
:104DA0004FF6FF70704700002DE9F0470446006899
:104DB00090461829027B02F00109C9F1010A50D07E
:104DC00004DC14293CD0172904D106E0192956D057
:104DD000202940D00020BDE8F0871D462CE000BF10
:104DE00015F8017BA8F1010000F0FF080026380645
:104DF00001D5012200E000224121204600F098F96F
:104E00007806070E52464021204600F091F92068AE
:104E10002C218279204600F08BF94A464021204619
:104E200000F086F920682C21C279204600F080F934
:104E3000761CF6B2082EDAD3B8F1000FD0D11CE000
:104E400042784921204600F073F920684021007B18
:104E500000F0010201E042464A21204600F068F9D4
:104E60000BE002784921204600F062F92068002317
:104E7000656982782C212046A8470120ABE7C278DB
:104E8000002365692C212046A847206849214278E3
:104E9000E3E713B50122046901AB1721A0471CBD4C
:104EA00030B404690023A4460A4630BC2021604780
:104EB0002DE9F0410546A1F114001F4616460C46A7
:104EC00006281CD2DFE800F01203030E12120021A4
:104ED0002846FFF7E5FF31462846FFF7DAFF0120B5
:104EE000BDE8F08101212846FFF7DAFF3B46324654
:104EF00021462846D5F810C0BDE8F04160470020A3
:104F0000EEE730B4C4680023A44630BC1A46192129
:104F1000604730B4C4680023A4460A4630BC16215A
:104F2000604730B4C4680023A4460A4630BC15214B
:104F3000604730B4C4681346A4460A4630BC172103
:104F400060470000F8B50C464FEA000514F8011B55
:104F5000182924D00EDC152919D0162917D01729A5
:104F600023D120788DF800006A4601212846FFF7FA
:104F7000E0FF0AE0192912D0FE2916D122788DF817
:104F800000202921284600F0D3F8641CDEE72278AF
:104F90008DF80020EE6800232846B047F5E700238F
:104FA000EE681A462846B047D0E7F8BD30B4C4686A
:104FB0000023A44630BC1A461821604770B5002370
:104FC000456904461A462821A8470023E5681A4681
:104FD00014212046A84701224B21204600F0A8F8C2
:104FE000206829210279204600F0A2F800224B21F6
:104FF000204600F09DF8206829210279204600F023
:1050000097F801224B21204600F092F820682921D0
:1050100042792046BDE8704000F08AB80160897C82
:1050200080F822107047000070B50C46054600F06D
:1050300019F890B9092C0BD00A2C01D0002070BDB2
:105040002846FFF7BBFF06492846FFF77BFF04E031
:1050500003492846CC31FFF7E1FF012070BD000075
:10506000F45400082DE9F0411E46144605460B296C
:1050700008D00D290ED00E291ED00F2927D00020D0
:10508000BDE8F0811AB12849FFF75CFF4AE02649E4
:10509000491FF9E74AB124490C31FFF753FF28684B
:1050A00090F8130085F822003CE01F49491DFFF7E6
:1050B00049FF2868807CF5E7FFF778FF81212846C3
:1050C000FFF72FFF21462846FFF723FF27E0FFF7D2
:1050D0006DFF707995F8221001EBC000C7B2402136
:1050E0002846FFF71EFF102040EA17112846FFF759
:1050F00018FF07F00F012846FFF70BFFB07940F0CB
:10510000B0012846FFF705FF30793268C006010E6E
:105110002846FFF70EFF641E14F0FF04F4D1284662
:10512000FFF7EFFE0120ABE7E154000800207047D5
:1051300030B444690023A44630BC604710B5194B15
:105140001046412916D008DC282910D0292925D05D
:105150002B2921D0402908D111E04FF400544929CE
:1051600012D04A2910D04B290FD0002010BDFDF7D6
:10517000EDFF15E04FF4804103E0012208E04FF419
:105180000041002AF9D103E0074B02B10122214678
:105190001846FBF7EEFE03E000BF01E0FBF7E2FD7F
:1051A000012010BD000C014000100140002180F8DA
:1051B000261070475F020302030301010404060086
:1051C000FF05FF05FF0106020902FD2006747C367B
:1051D000002108749CAC0EC4002207748CA49D06A8
:1051E000230B748C241994645052002409749C6815
:1051F000119329022508748C34AAA600260A749CEF
:1052000028892A5112022707749C2C270228077428
:10521000AC5A63022908748C306BCA002A09748C5A
:10522000248AA64A0A2B08749C2C9AB2182C07745C
:105230007C5A94012D07747C6487012E06747C5A75
:105240000C2F0874AC2CAAE5003009749C284996F0
:10525000520C3108749C482BAD003209749C28C94B
:10526000A268053308748C2D0A13193408748CA4B1
:1052700065AB023508748C251313193609741C2587
:10528000939228063708748C2DAAE5003809741CFF
:10529000A5544964003909749C2889B444063A0726
:1052A00074DC1C8C013B0874DC1C8C32003C0774E1
:1052B000ACC62A003D0774CC7587003E07748CB0DD
:1052C00054073F08740C31CA81184007741CA54765
:1052D000154109749C284996AE00420A740C29496C
:1052E000A42491014309749C28A925510C440874F5
:1052F0000C29E945064508748C2593B215460874B7
:105300008C2593B21C4709741C254B9A54004808FD
:10531000748CA465E90A4908748C292BAD004A08ED
:1053200074ACAC528A014B09748CA4454A5A014CA6
:1053300007748CAC6D054D08748C24B974054E0847
:1053400074ACA4B2B4034F08749C28E92906500930
:10535000740C2949A42C075109749C28E9294C0094
:105360005209740C2949A4A4155308741C25ACC80F
:10537000005407748C296B065508748CA45F560082
:105380005608748CA49729065708748CA4E5520516
:105390005808748CA4A9D20A5908748CA4292B0328
:1053A0005A08748C2DAAAD005B08741C29ABA900A7
:1053B0005C08748C2CACA5005D07740CAD49065ECE
:1053C00008749C28C969005F06747CF20260077447
:1053D0009C30A7016107745CA5930A6209748C4C28
:1053E0004A5A64006308745C250B5500640874AC69
:1053F00048E9A402650874DC28493415660874ACD1
:10540000D294C5006709745CA5A4251200680874CD
:105410008C4C4A7A056908749C588B56006A09744A
:10542000AC1CC82A12006B09748C2C49A4A4156CFE
:1054300007740CAD69056D0874CC2459BA026E0767
:10544000744C29E9156F0874DC28698A01700974A5
:105450004C2949A42C037108745CA593960072082A
:1054600074CC2491B21C7308745C454C64007408BD
:10547000749C68CAC214750774CCA4271576077487
:10548000CCA4A718770874CCA465A902780974CCB9
:1054900024CAA22405790974CCA4494B24007A08B3
:1054A00074CC2D8A56007B0874AC92564C007C0755
:1054B000749CAC33007D09748C3093B228037E0851
:1054C000749C44C9690000000004FFFF0000000054
:1054D000CF4C0008D34C0008F34700081815AF194B
:1054E000FF1815AE19FF1815A115C819FF1815A03A
:1054F00015C019FF1815AE15D5168015A8163F153D
:10550000D316001540158D16141520160015A1157B
:10551000C815DA1612158116CF15D916F115DB1636
:1055200040152E15A415A619FF1815AE15D5168011
:1055300015A8163F15D316001540158D1614152005
:10554000160015A115C815DA1612158116EF15D912
:1055500016A115DB1600152E15A415A619FF181592
:10556000AE15D5168015A8163F15D3160015401593
:105570008D16141520160015A115C815DA1602157A
:105580008116CF15D916F115DB1640152E15A41569
:10559000A619FF1815AE15A415D5165015A8163F57
:1055A00015D31600154015AD168B15D9162215DB2F
:1055B00016351532158116FF15A615DA161219FFC4
:1055C0000001140A6464323200127A000004289642
:1055D00010080000800040000001140A64643232A8
:1055E00000093D00030428961008020280004000D4
:1055F0000000000000000000010203040607080983
:1056000000000000010203044FBB610567ACDD3FF1
:10561000182D4454FB21E93F9BF681D20B73EF3FD9
:10562000182D4454FB21F93FE2652F227F2B7A3C51
:10563000075C143326A6813CBDCBF07A8807703C0A
:10564000075C143326A6913CC4EB98999999C9BF7D
:10565000711623FEC671BCBF6D9A74AFF2B0B3BFB2
:105660009AFDDE522DDEADBF2F6C6A2C44B4A2BF72
:105670000D5555555555D53FFF8300922449C23FDE
:105680006E204CC5CD45B73F513DD0A0660DB13F12
:10569000EB0D76244B7BA93F11DA22E33AAD903F24
:1056A0000000000000000000C856000800000020B4
:1056B00004010000F03C0008CC5700080401002061
:1056C000F4090000003D0008000000000000000098
:1056D00000000000000000000000000000000000CA
:1056E000CDCC2C40000000000000000000000000B5
:1056F000000000000AD7A33B0000000000000000EB
:105700000000000000000000000000000000000099
:105710000000000000000000000000000000000089
:105720000000000000000000000000000000000079
:105730000000000000000000000000000000000069
:105740000000000000000000000000000000000059
:105750000000000000000000000000000000000049
:105760000000000000000000000000000200000037
:105770000000000000000000000000000000000029
:105780000000000000000000000000000000000019
:105790000000000000000000000000000000000009
:1057A00000000000000000000000000000000000F9
:1057B00000000000000000000100000010000000D8
:0C57C000000000000024F40000000000C5
:04000005080000ED02
:00000001FF
